:020000040800F2
:10000000000001208D2F0008D11B0008D31B000821
:10001000D51B0008D71B0008D91B000800000000F2
:10002000000000000000000000000000DB1B0008D2
:10003000DD1B000800000000DF1B0008E11B0008BA
:10004000D52F0008D52F0008D52F0008D52F000880
:10005000D52F0008D52F0008D52F0008D52F000870
:10006000E51B0008D52F0008D52F0008D52F000864
:10007000D52F0008D52F0008D52F0008051C000833
:10008000D52F0008D52F0008D52F0008D52F000840
:10009000D52F0008D52F0008D52F0008D52F000830
:1000A000D52F0008D52F0008D52F0008D52F000820
:1000B000D52F0008D52F000845190008D52F0008B6
:1000C000D52F0008D52F0008D52F0008D52F000800
:1000D000D52F0008D52F0008D52F0008D52F0008F0
:1000E000311C0008D52F0008D52F000800000000A3
:1000F0000000000000000000000000000000000000
:100100000000000000000000B5180008D52F00080E
:10011000D52F0008D52F000895190008D52F000805
:10012000D52F0008D52F0008D52F0008D52F00089F
:10013000D52F00080000000000000000D52F0008A7
:10014000D52F0008D52F0008D52F0008D52F00087F
:10015000000000000000000000000000000000009F
:10016000000000000000000000000000000000008F
:10017000000000000000000000000000000000007F
:10018000000000000000000000000000000000006F
:10019000000000000000000000000000000000005F
:1001A000000000000000000000000000000000004F
:1001B000000000000000000000000000000000003F
:1001C000000000000000000000000000000000002F
:1001D000000000000000000000000000000000001F
:0401E0005FF8E0F1F3
:1001E40010B5054C237833B9044B13B10448AFF36D
:1001F40000800123237010BD840000200000000053
:100204005839000808B5034B1BB103490348AFF341
:10021400008008BD00000000880000205839000854
:1002240010B5284A136823F0070343F00203136050
:10023400244B1B6803F00703022BF9D1224A1368ED
:1002440043F480331360204B1B6813F4003FFAD04F
:100254001D4B5A6822F47C1242F4E8125A60DA6A9E
:1002640022F4803222F00F02DA621A6842F08072BD
:100274001A60154B1B6813F0007FFAD0124B5A68B2
:1002840022F0F0025A605A6822F4E06242F480627A
:100294005A605A6822F460525A605A6822F0030283
:1002A40042F002025A60084B5B6803F00C03082B0F
:1002B400F9D1064C204601F071FE204601F07EFE85
:1002C40010BD00BF002002400010024000A24A04FA
:1002D400044B0360044B4360044B8360044BC360D2
:1002E400704700BFA8000020C0000020D8000020F4
:1002F400F000002000B583B0314B9A6942F001024E
:100304009A619A6902F001020192019ADA6942F053
:100314008052DA61DB6903F080530093009B294B20
:10032400D96821F4E0610904090C274A0A43DA6018
:10033400DA68C2F30222C2F10703042B28BF0423A4
:100344001946131D062B39D9033A4FF0FF338B405E
:10035400DB4303F00F0393401B01DBB2194A82F81D
:1003640023301A4A536823F0E06343F00073536068
:10037400FFF756FF00F04AFC00F054FD00F004FFC4
:1003840000F0A0FE01F0B8FB01F014F901F082F8CE
:1003940001F07EF901F0CEF901F04AFB0C48FFF7B9
:1003A40097FF02F0DBFB02F0C7FD02F095F802F0C4
:1003B400EDFC0749074802F0FBF9FAE70022C4E71D
:1003C4000010024000ED00E00003FA0500000140C7
:1003D40008010020A0000020013807283DD8DFE8EC
:1003E40000F020271219040B2E35254B9B6813F0BF
:1003F400020F34D000207047214B9B6813F0020F8A
:100404002FD0002070471F4B9B6813F0040F2AD095
:10041400002070471B4B9B6813F0040F25D000206D
:100424007047174B9B6813F0010F20D000207047D2
:10043400134B9B6813F0010F1BD000207047104B27
:100444009B6813F0040F16D0002070470C4B9B6878
:1004540013F0040F11D000207047002070470120D2
:100464007047012070470120704701207047012028
:10047400704701207047012070470120704700BF7A
:10048400001001400008014008B53C4B1B783BB903
:1004940003F1804303F588339B6813F0010F10D0F8
:1004A400364B1B78DBB2022B18D0344B1B78DBB2F3
:1004B400032B2CD0314B1B78DBB2042B42D0002011
:1004C40008BD2E4B02221A702D4B01221A802D4B8F
:1004D40000221A70322001F0F7FAE1E7294B1B7869
:1004E400DBB2012B09D0274B00221A70642001F0E3
:1004F400EBFA224B03221A70D7E7214B188880B2FB
:10050400FFF76AFF0028D0D11C4B1870D8E71D4BA9
:100514001B78DBB2012BCDD1194B188880B2FFF7C1
:100524005BFF10B9154B1870CAE7144B04221A70FC
:10053400144B00221A70642001F0C6FA104B18887C
:1005440080B2BDE70F4B1B78DBB2012B03D00C4B01
:10055400188880B2B4E70A4B188880B2FFF73CFFD2
:1005640028B90023064A1380044A1370EFE7054BA9
:1005740000221A70642001F0A7FAE8E71F010020A6
:100584001C0100201901002010B5684B1B786BB9C1
:1005940003F1804303F588339B6813F0020F1CD1E9
:1005A400624B01221A70624B05221A805F4B1B7842
:1005B400DBB2012B34D05D4B1B78DBB2022B39D07C
:1005C4005A4B1B78DBB2032B4ED0584B1B78DBB253
:1005D400042B00F09180002010BD564B9B6813F053
:1005E400040F06D1514B01221A70514B03221A8079
:1005F400DCE7514B9B6813F0040F06D14B4B0122EF
:100604001A704B4B07221A80D0E74B4B9B6813F0B0
:10061400010FCBD10123454A1370454A1380C5E726
:10062400464B00221A70322001F04EFA3F4B022250
:100634001A70C0E7414B1B78DBB2012BC0D13C4B95
:10064400188880B2FFF7C8FE10B9384B1870C3E79A
:1006540000243A4B1C70322001F036FA334B03224B
:100664001A70374B1C70ABE7344B1B78DBB2012B91
:10067400ABD12F4B188880B2FFF7AEFE78B1304B68
:100684001B78042B12D92A4B1B889BB2013B062BE7
:1006940019D8DFE803F02D18151825182900234B65
:1006A40000221A70224B188880B295E70133244A3D
:1006B4001370224B00221A70322001F005FA84E7ED
:1006C4001B4B04221A80194B04221A701B4B002264
:1006D4001A70322001F0F8F9154B188880B27BE7C4
:1006E400134B06221A80EEE7114B08221A80EAE720
:1006F4000F4B02221A80E6E7104B1B78DBB2012B6A
:1007040001D0002068E70A4B188880B2FFF764FE26
:1007140020B9074B1880054B18705DE70024074B80
:100724001C70322001F0D0F9204655E71E0100204C
:100734001A010020000801400010014019010020A6
:1007440018010020044B9B6813F0010F01D0002016
:1007540070470120704700BF00100140014B012287
:100764001A707047190100204FF4C86300FB03F3AB
:10077400034880FB03201844C0F34F10704700BFA8
:10078400898888884288054B93FBF2F35A08013A1A
:1007940003494A80013BCB80704700BF40420F00B1
:1007A40020010020064AD188642301FB0333C18859
:1007B40093FBF1F3590801391180013B9380704791
:1007C4002001002038B505460C46FFF7DBFF28461C
:1007D400FFF7E8FF043405EB4404E388024A53813D
:1007E400EB881B01138138BD2001002008B50F4B95
:1007F4004FF480725A614FF400725A61A3F500639A
:100804004FF480625A610A4B1B7813F0010F07D032
:10081400084B4FF400621A61022001F0A1F808BDF0
:10082400044B4FF400625A61F6E700BF0010014028
:10083400440100200008014008B5024800F0CCFF44
:1008440008BD00BF20010020064B1A786FF3000298
:100854001A701A7842F002021A701A7842F00402EE
:100864001A7070474401002010B50F4C23786FF3C1
:1008740041032370FFF796FF0C4B4FF480625A61DB
:10088400237813F0010F0AD0084B4FF400621A6169
:10089400022001F065F8064800F0E8FF10BD034BA4
:1008A4004FF400625A61F3E744010020000801405C
:1008B4002001002008B50A4A13786FF382031370ED
:1008C400FFF760FF074B4FF480725A614FF40072D8
:1008D4005A61022001F044F8034800F0F9FF08BD12
:1008E40044010020001001402001002008B500F060
:1008F400D3FF01F007F808BD044B4FF480621A617E
:1009040003F500634FF480721A61704700080140D8
:1009140008B5002308E01A1D31F812C001EB4202A9
:10092400A2F806C00133DBB20A789A42F3D8002257
:100934004A7001F0D7FE08BD70B54D780B789D4222
:100944004DD206460C4629462046FFF73BFFFFF7EB
:100954004DFF02E0FFF7F6FE30B32B1D04EB43031B
:10096400DB8843B31F4B1B7813F0040FF2D01D4BED
:100974001B7813F0020FEDD01B4B5A89013A2B1D43
:1009840004EB4303DA80174B1A786FF382021A7070
:100994001A786FF341021A70FFF74EFF2A46214678
:1009A400304601F09FFED5E7FFF7A6FF2078637875
:1009B400C01A40B212E0637801336370094B1B78AC
:1009C40013F0040F04D1074B1B7813F0020FF5D07A
:1009D400FFF792FF20786378C01A40B270BD4FF0E1
:1009E400FF30FBE7440100202001002000B583B064
:1009F4000023ADF80630FFF7C7FDADF80600002868
:100A0400F9D0BDF806309BB2042B0FD9073B9BB23B
:100A1400012B16D80C4A13786FF3000313700A4B9A
:100A2400187800F0010003B05DF804FB032B02D238
:100A34004FF0FF30F7E7044A137843F001031370D3
:100A4400EDE74FF0FF30EEE74401002038B500F049
:100A540069FF194B4FF448625A806422DA80174BBD
:100A64001B7813F0020F00D138BD144C237843F0E7
:100A740001032370104D2846FFF784FE23786FF39B
:100A8400410323702846FFF7EFFE0C4B1B7813F04D
:100A9400010FFAD10A4B9B6813F4805FFAD100F07E
:100AA400FBFE084B4FF480621A61044A137843F04A
:100AB40002031370D8E700BF2C010020440100207A
:100AC400001001400008014010B500F02BFF1C4B42
:100AD4004FF448625A806422DA80FFF733FE01281B
:100AE40009D0FFF751FD0028F7D00CE0154B1B7817
:100AF40013F0020F08D1FFF747FD0028F6D00128B4
:100B0400F4D00228F2D010BD0D4C2046FFF73AFE77
:100B14000C4A13786FF3410313702046FFF7A4FEC9
:100B2400FFF710FE0128FBD000F0B6FE064B4FF491
:100B340080621A61034A137843F002031370DAE700
:100B44002C010020440100200008014008B500F0F9
:100B5400A3FE034A137843F00203137008BD00BFD9
:100B64004401002008B500F0CDFE064A137843F096
:100B740004031370044B5B8913B1013B024A538194
:100B840008BD00BF44010020200100200D4B4FF49C
:100B940080621A610C4A13786FF3000313701378A0
:100BA40013F0010F08D0074B4FF400621A61054B94
:100BB4004FF480625A617047024B4FF400625A61ED
:100BC400F5E700BF00080140440100200D4B4FF43D
:100BD40080621A610C4B1A7842F001021A701B7879
:100BE40013F0010F08D0074B4FF400621A61054B54
:100BF4004FF480625A617047024B4FF400625A61AD
:100C0400F5E700BF00080140440100202DE9F04F42
:100C14008DB000240A940B940594069407940894C8
:100C24000994754B9A6942F020029A619A6902F01C
:100C340020020492049A9A6942F010029A619A6915
:100C440002F010020392039A9A6942F004029A6134
:100C54009A6902F004020292029A9A6942F0080226
:100C64009A619B6903F008030193019B0723634A7C
:100C74005361634E4FF440737361DFF888B14FF4EE
:100C84000C43CBF8143040F2077705974FF0040A71
:100C9400CDF818A005A9304600F0D8FF40F2033380
:100CA40005934FF00809CDF81890099405A9584602
:100CB40000F0CCFF40F204450595CDF818A005A935
:100CC400584600F0C3FF0597012706974FF0020826
:100CD400CDF81C80089405A9484800F0B7FF4A4B9A
:100CE40005930697CDF81C80089405A9304600F0BA
:100CF400ADFF464B05930697CDF81C80089405A9D3
:100D0400584600F0A3FF42494B6923F00F034FF00C
:100D14000F0B9BFAABF2B2FA82F208FA02F843EA3A
:100D240008034B618B6823F470634FF4706292FA8A
:100D3400A2F2B2FA82F2032000FA02F213438B60A9
:100D44004FF480530A938DF82C708DF82D408DF854
:100D54002E700AA801F038F9CDF828A08DF82C706F
:100D64008DF82D408DF82E700AA801F02DF9F36846
:100D740023F482234FF4822292FAA2F2F360254AEA
:100D8400D36823F004039AFAAAFAD3607068224B5A
:100D940093FAA3F1B1FA81F189000BFA01F120EA87
:100DA400010193FAA3F3B3FA83F39B0009FA03F363
:100DB4000B437360136895FAA5F1B1FA81F18900C8
:100DC4000BFA01FB23EA0B0395FAA5F5B5FA85F5B1
:100DD400AD0009FA05F51D4315601049CB68104BA9
:100DE40083F808434FF480721A60C96883F8284373
:100DF4005A600DB0BDE8F08F00100240000C0140B5
:100E04000010014000080140030003048C008C041E
:100E140000000140001401401000100400ED00E047
:100E240000E100E082B0154B5A6942F001025A61B8
:100E34005B6903F001030193019B114BDA68C2F370
:100E44000222C2F10703042B28BF04231946131DF1
:100E5400062B11D9033A4FF0FF338B40DB4303F0E9
:100E6400030393401B01DBB2064A82F80F334FF4AD
:100E74000043136002B070470022ECE70010024008
:100E840000ED00E000E100E082B000238DF80730BF
:100E940001238DF80630134B9B68DB4303F00203F8
:100EA400002B0CBF012300238DF8063005D19DF8DB
:100EB400073043F002038DF807300A4B9B68DB438D
:100EC40013F0010383F001038DF8063005D19DF87A
:100ED400073043F001038DF807309DF8070002B096
:100EE400704700BF0008014010B50446FFF7CCFF6F
:100EF40060706A4B1B78042B00F2CD80DFE813F09E
:100F04000500220055007F00BA00654B1B78002BBA
:100F140040F0C180634B1B78002B00F0BC800023A1
:100F2400614A1370614A13705C4A04211170604A6B
:100F340013705C4A13705A4B01221A70052000F09A
:100F4400CFFDA8E0564B1B78002B40F0A480554BF6
:100F54001B7893B10023564A1370524A1370524AB5
:100F64001370524A13704D4B04221A704C4B0122D9
:100F74001A70052000F0B4FD8DE04D4A137801335A
:100F8400DBB213700F2B09D900231370464A137078
:100F9400464A1370414B04221A707CE0404B0122F4
:100FA4001A70052000F09CFD75E03D4B1B78002B6A
:100FB40071D13C4B1B7863B100233B4A13703B4A0D
:100FC4001370364A04211170364A1370384A13706C
:100FD40061E0374B1B780F2B0AD90023344A137076
:100FE400314A1370314A13702C4B04221A7052E0A8
:100FF4002B4B01221A70052000F072FD4BE0284BA8
:101004001B78002B47D1274B1B789BB1274B1B78B0
:10101400012B25D0244B1B78012B26D00023224AF8
:101024001370224A13701F4A1370214A13701B4A0B
:10103400137030E01E4B1B780F2B0AD900231C4A77
:101044001370194A1370194A1370144B04221A703E
:1010540021E0134B01221A70052000F041FD1AE033
:10106400144A1368013B1360D8E7124A136801332A
:101074001360D3E70A4B1B786BB90A4B1B7823B177
:101084000023064A1370074A1370054B01221A7095
:10109400052000F025FD607810BD00BF4F01002041
:1010A4004D010020500100204C0100204E01002081
:1010B4004501002048010020014B00221A707047AE
:1010C4004D01002030B58FB00024089409940A948F
:1010D4000B940C940D94039404940594069407942F
:1010E400244DAB6943F00803AB61AB6903F008031B
:1010F4000293029B204B0393092304930323059338
:101104000423069303A91D4800F0A0FD1C4A53685C
:1011140043F0E06343F002035360EB6943F40013CC
:10112400EB61EB6903F400130193019BA5F5DE3534
:10113400EB6823F00103EB602B6823F040032B6082
:101144002B6823F080032B6008940E4B09930A94B8
:101154000B944FF480630C934FF480430D9308A9D0
:10116400284600F0FFFDEB6823F0FE03EB600FB0B0
:1011740030BD00BF0010024003000304000C014016
:1011840000000140801A060030B593B028220021E7
:1011940008A801F049FF00250395049505950695D7
:1011A4000795374BDA6942F48042DA61DA6902F46E
:1011B40080420292029A9A6942F008029A619B69FB
:1011C40003F008030193019B2E4B0393092304931B
:1011D4000323059303A92C4800F038FD2B4CA36D81
:1011E40023F4804323F0100343F01003A365A36D9D
:1011F40023F44053A365A36D23F02003A365A36DDB
:1012040023F04003A365A36D43F08003A365A36D9E
:1012140023F44073A365A36D23F44063A365089589
:101224004FF4827309930A950B950C954FF4007350
:101234000D9308230E930F9510950A231193144DC3
:1012440008A9284600F02AFFA36D23F00103A36533
:101254004FF4003363604FF4002363606B6843F022
:1012640002036B60A36D43F00203A365A36D43F017
:101274000803A3652B6843F040032B6013B030BD13
:1012840000100240A000A004000C01400000024035
:1012940000380040034B9B6813F0020FFAD0014B57
:1012A400187370470038004008B5204A936D23F046
:1012B40001039365D36D1B0C1B0443F08403D365B6
:1012C4001B4B187800EB40118B00043B19490B446D
:1012D4001949926D22F47F5222F02F025204520CCB
:1012E400102A10D0114A1366516603280FD9104BE7
:1012F40000221A700D4A936D23F0010393650F4B7E
:1013040004221A6108BD094A53661166EDE701F02B
:10131400EFFB0A4B02221A61044A936D43F0010366
:101324009365034A137801331370EBE7000002401E
:1013340051010020BC0100200C380040000C014089
:1013440008B5034B4FF480325A60FFF7ADFF08BD78
:101354000000024038B5054600240CE0134B03EBB3
:10136400041300211972114B03EB0213DB68501CA8
:1013740098470134A4B2022C17D822460B4B03EB36
:1013840004131B7A012BF4D123010849CB58AB4237
:10139400EFD801EB04135B7A002BDFD0200101EBC3
:1013A40004135B682B440B50DDE738BD6801002053
:1013B400014B1868704700BF5801002010B586B073
:1013C40000230193029303930493059303F1804351
:1013D40003F50433DA6942F02002DA61DB6903F0D1
:1013E40020030093009B4723ADF80430FF230393AD
:1013F400054C01A9204600F05DFF236823F080031B
:10140400236006B010BD00BF0014004030B587B0A3
:10141400002501950295039504950595164BDA6907
:1014240042F01002DA61DB6903F010030093009BC1
:101434004723ADF8043040F2E73303930F4C01A97E
:10144400204600F037FF236823F0800323606FF009
:1014540001032361E36843F00103E3606562084B21
:10146400402283F836234FF480025A60236843F005
:101474000103236007B030BD00100240001000409B
:1014840000E100E008B5FFF717FE08BD08B5FFF757
:1014940065F908BD70B59AB0002415941694179494
:1014A40018941994202221460DA801F0BDFD07943B
:1014B400089409940A940B940C940294039404944D
:1014C40005940694354EB36943F40063B361B3697C
:1014D40003F400630193019B4723ADF8543040F2B9
:1014E400E7331793FF2319932D4D15A9284600F0D0
:1014F400E1FE2B6823F080032B60AB6823F4804368
:1015040023F00703AB60274AD2F8183C43F00803E2
:10151400C2F8183C70230D930E940F9440F2F31309
:10152400109311941294139414940DAA0121284633
:1015340000F000FF1C4A136823F0040313606B6877
:1015440023F0700343F040036B60AB6843F0800307
:10155400AB600794089409948DF82840ADF82A40AC
:101564004FF400530B930C9407A9284600F000FF96
:10157400B36943F00403B361B36903F00403009354
:10158400009B0A4B029309230393022304930594BB
:1015940002A9074800F05AFB1AB070BD00100240BF
:1015A400002C014000200140182C014001000104DE
:1015B4000008014070B594B000240F941094119465
:1015C400129413942022214607A801F02DFD0294C1
:1015D4000394049405940694294EF36943F002039A
:1015E400F361F36903F002030193019B4723ADF810
:1015F4003C3040F2E7331193224D0FA9284600F006
:1016040059FE2B6823F080032B604FF08042D2F800
:10161400183443F40063C2F8183470230793089411
:10162400099440F2F3130A930B9407AA1021284655
:1016340000F080FE144A136823F4806313606B681F
:1016440023F0700343F050036B60AB6843F08003F6
:10165400AB60B36943F00403B361B36903F00403FB
:101664000093009B48F2800302930923039302230F
:101674000493059402A9054800F0E8FA14B070BD7B
:10168400001002400004004018040040000801401B
:1016940030B587B00025019502950395049505950D
:1016A400214BDA6942F00402DA61DB6903F00403D6
:1016B4000093009B40F23F6303931C4C01A9204616
:1016C40000F0F8FD236823F080032360A36823F06F
:1016D4007003A360A36823F4804323F0070343F05B
:1016E4000703A360E36823F04003E360E36823F4A3
:1016F4008043E360636823F070036360A36823F0AE
:101704008003A3606FF001032361E36843F00103E6
:10171400E360074B102283F81E234FF080421A60C7
:10172400656207B030BD00BF0010024000080040F1
:1017340000E100E030B587B00025019502950395DE
:1017440004950595214BDA6942F00802DA61DB69F8
:1017540003F008030093009BC72303931C4C01A9C7
:10176400204600F0A7FD236823F080032360A368CC
:1017740023F0700343F01003A360A36823F48043B1
:1017840023F0070343F00703A360E36823F0400357
:10179400E360E36823F48043E360636823F0700349
:1017A4006360A36823F08003A3606FF001032361E7
:1017B400E36843F00103E360064B102283F832230D
:1017C4004FF480225A60656207B030BD00100240B9
:1017D400000C004000E100E010B4214B1A6822F034
:1017E40001021A600289DA62002159621A6842F021
:1017F40001021A60A3F580631A6822F001021A60DC
:1018040059621A6842F001021A60164A136823F0FA
:1018140001031360144B1C6824F001041C60516222
:1018240059628188D162C188D962018891634188F3
:101834005963116A41F010011162196A41F0010102
:101844001962596C41F400415964116841F0010175
:1018540011601A6842F001021A6010BC704700BFA0
:10186400000C004000040040002C0140094B1A68A1
:1018740022F001021A6000225A628288DA62028827
:101884009A631A6A42F010021A621A6842F001025C
:101894001A60704700040040044B1A6822F00102E9
:1018A4001A601A6A22F010021A627047000400409B
:1018B40008B5064B1B6913F0010F05D0034B6FF0FD
:1018C40001021A61FFF742F908BD00BF000C004095
:1018D4000B4B1A6822F001021A6000225A62C28875
:1018E400DA6242885A631A6A42F001021A625A6C36
:1018F40042F400425A641A6842F001021A607047C6
:10190400002C0140064B1A6822F001021A605A6C3E
:1019140022F400425A641A6A22F001021A627047E1
:10192400002C0140054A136823F001031360A2F55B
:101934008062136823F0010313607047000C0040B9
:1019440008B5064B1B6913F0010F05D0034B6FF06C
:1019540001021A61FFF706F908BD00BF0008004044
:101964000A4BD8626FF001021A6100225A621A68A7
:1019740042F001021A60054B1B6913F0010FFAD003
:10198400024A136823F001031360704700140040F7
:1019940008B5094B1B6913F0010F0BD0064B6FF010
:1019A40001021A61054B186801301860044B1B686A
:1019B40003B1984708BD00BF001000405801002043
:1019C4005401002070B506464FF0000C09E0164B98
:1019D40003EB0C1300221A7221E00CF1010C1FFA24
:1019E4008CFCBCF1020F1CD865460F4C04EB0C1E9A
:1019F400DEF80C40002CF0D1CEF804608EF809100B
:101A0400CEF80C20002BE2D0084B1B689847064404
:101A1400054A2B0102EB0511D65001230B72681CF9
:101A240000E0002070BD00BF680100205C010020C0
:101A340008B5FFF7C3FCFFF7E9FC0B4B0B4A1A6030
:101A44000B4B0C4A1A6000230B4A19463220FFF74D
:101A5400B9FF0A4B18600023094A19460520FFF70D
:101A6400B1FF084B186008BD540100205913000849
:101A74005C010020B51300089114000860010020E7
:101A8400891400086401002020B1431E024A02EBBD
:101A940003135960704700BF6801002078B110B586
:101AA4000446074B1B689847631E064A190102EB5C
:101AB40003135C682044505001221A7210BD704711
:101AC4005C0100206801002010B50146034C206829
:101AD400FFF7DAFF2068FFF7E1FF10BD6001002087
:101AE40010B50146034C2068FFF7CEFF2068FFF7CE
:101AF400D5FF10BD6401002030B58FB000240794D9
:101B0400089409940A940B940C940D9402940394ED
:101B1400049405940694274BDA6942F48022DA612E
:101B2400DA6902F480220192019A9A6942F0100261
:101B34009A619B6903F010030093009B1E4B029370
:101B440009230393032304931C4D02A9284600F0A0
:101B54007DF81B4B02930423039302A9284600F04B
:101B640075F8184A536823F0E06323F0300343F018
:101B7400E06343F0100353604FF4E1330793089498
:101B840009940A940C230B930C940D940E4C07A9FE
:101B9400204600F007FC236923F490432361636922
:101BA40023F02A036361E36843F40053E3600FB056
:101BB40030BD00BF001002400400040400100140C6
:101BC400080008040000014000480040FEE7FEE76A
:101BD400FEE7FEE7FEE77047704770477047000076
:101BE40008B5064B5B6913F0040F00D108BD034B25
:101BF40004225A61FEF7EAFFF8E700BF000401403F
:101C040008B5094B1B6813F4003F09D1064B1B6848
:101C140013F4002F03D0044B4FF400225A6008BD84
:101C2400FFF78EFBFBE700BF0000024008B5064B40
:101C34005B6913F4805F00D108BD034B4FF48052FD
:101C44005A61FEF7A3FFF7E7000401400B68C3F3F2
:101C54000F2C9CFAACF2B2FA82F276E0A2F10804FC
:101C64004FF00113A34043F080634C68082C2CD040
:101C74001D0E93FAA3F4B4FA84F4A4004FF00F0EEB
:101C84000EFA04F4465926EA040493FAA3FEBEFAB3
:101C94008EFE4FEA8E0E4E6806FA0EFE44EA0E04DD
:101CA40044514C68012C1ED0092C1CD001323CFA42
:101CB40002F347D00123934013EA0C0FF6D0072A0E
:101CC400CCD840F201139340CFE70D69C6681C0AD3
:101CD40026EA132694FAA4F4B4FA84F405FA04F474
:101CE4003443C460C4E74FEA136E50F80E4093FACD
:101CF400A3F5B5FA85F5AD00032606FA05F524EA41
:101D0400050493FAA3F5B5FA85F5AD008E6806FAD5
:101D140005F5254340F80E50CC6893FAA3F6B6FABD
:101D240086F6B600042707FA06F625EA060593FAAE
:101D3400A3F3B3FA83F39B0004FA03F32B4340F8B1
:101D44000E30B3E70020F0BD01323CFA02F306D0B6
:101D54000123934013EA0C0FF6D0F0B5AFE700204F
:101D640070470000F0B585B004460D46036823F0C3
:101D740001030360684600F001F9029A6B68AE68DB
:101D84003648A0FB021C4FEA9C41606820F03F00EB
:101D940040EA9C406060206A20F03F00304FBB4224
:101DA40037D80131014321622D498B424DD9002E90
:101DB40039D103EB4303B2FBF3F2C2F30B03002B61
:101DC4003DD042F4004246EA0203E26922F44F4263
:101DD40022F0FF021A43E261EA686969A36823F406
:101DE400034323F0FF030A431343A3602B682268D1
:101DF40022F01A0213432360236843F00103236093
:101E04002B69226822F4806213432360002005B00A
:101E1400F0BD4FF4967707FB01F1124FA7FB017158
:101E240089090131BEE703EB830303EB8303B2FBB0
:101E3400F3F2C2F30B032BB142F40042C3E748F2BE
:101E44000102C0E748F20102BDE75B00B2FBF3F315
:101E540040F6FC721342B8D10423B6E783DE1B4379
:101E6400A0860100D34D6210034B5B68C3F30313D8
:101E7400024AD35CD8407047001002407039000811
:101E8400034B5B68C3F30223024AD35CD840704718
:101E94000010024080390008034B5B68C3F3C2237F
:101EA400024AD35CD84070470010024080390008D1
:101EB400084AD36AC3F30323074800FB03F303F57B
:101EC400740303F51053D06AC0F303100130B3FB5D
:101ED400F0F070470010024000127A0008B51C4A66
:101EE400536803F48033D26A120102F4801213435C
:101EF400B3F5803F12D0B3F5881F18D0154B144AA0
:101F0400526802F47012B2F5501F1AD0104A506889
:101F1400C0F38340023003FB00F008BD0C4BDB6AC6
:101F240003F00F0301330C48B0FBF3F3E7E7FFF7CB
:101F3400BFFF074BDB6A03F00F030133B0FBF3F37E
:101F4400DDE703EB430003EB80004008E5E700BF57
:101F54000010024000093D0000127A0008B5054B4C
:101F64005B6803F00C03082B01D0034808BDFFF79E
:101F7400B5FFFBE70010024000127A0010B50446DA
:101F8400FFF7ECFF2060FFF76FFF6060FFF778FF5B
:101F9400A0606068FFF780FFE06010BD064BA3FB04
:101FA40000239B09013B4FF0E0225361002393611E
:101FB40005231361704700BFD34D6210014B1860B5
:101FC400704700BF0000002010B4034600790028C9
:101FD40053D01A68002A5DD05879012818D00228F5
:101FE40021D058B101209A79002A51D0022A2FD049
:101FF400032A38D0012A20D0012049E026494C6820
:1020040024EA02024A601A680C6822430A60EAE77A
:102014002149086820EA02020A601A6848680243F3
:102024004A600020DFE71C49086802430A601A6816
:10203400486802434A600020D5E71C68164AD16804
:1020440021EA0401D1601B6891680B4393601FE08F
:102054001C68114A916821EA040191601B68D168E7
:102064000B43D36014E019680B4A946821439160D0
:102074001B68D1680B43D3600AE0074A11681C68E7
:1020840021EA040111601968536823EA01035360CB
:1020940010BC70470020FBE70004014002460368BF
:1020A40013F0400F2DD110B4006820F47F4020F0CD
:1020B400BF000B684C6823438C682343CC682343DC
:1020C4000C6923434C6923438C692343CC69234320
:1020D4000C6A234303431360536823F00403C88A40
:1020E400034353600B6AB3F5005F06D00020D36945
:1020F40023F40063D36110BC70478B8C1361002000
:10210400F5E70120D36923F40063D361704700002D
:1021140030B4036A23F001030362036A44688269EA
:1021240022F073020D682A4323F002030D692B4346
:1021340023F001034D682B430F4DA84207D04460A0
:102144008261CA6842630362002030BC704723F096
:1021540008034D6943EA850323F004038D6843EAC9
:10216400850324F480748D692C4324F40074CD69B0
:1021740044EA4504E3E700BF002C014030B4036A9D
:1021840023F010030362036A4468826922F4E6427E
:102194000D6842EA052223F020030D6943EA051382
:1021A40023F010034D6843EA0513104DA84207D0ED
:1021B40044608261CA6882630362002030BC704755
:1021C40023F080034D6943EA851323F040038D68AF
:1021D40043EA851324F480648D6944EA850424F475
:1021E4000064CD6944EAC504E2E700BF002C014065
:1021F40030B4036A23F480730362036A4468C269D7
:1022040022F073020D682A4323F400730D6943EA34
:10221400052323F480734D6843EA05230F4DA84238
:1022240007D04460C261CA68C2630362002030BC44
:10223400704723F400634D6943EA852323F48063E4
:102244008D6843EA852324F480548D6944EA051497
:1022540024F40054CD6944EA4514E2E7002C01401B
:1022640030B4036A23F480530362036A4468C26986
:1022740022F4E6420D6842EA052223F400530D6974
:1022840043EA053323F480534D6843EA0533084D8C
:10229400A84207D04460C261CA6802640362002095
:1022A40030BC704724F480448D6944EA8514F1E716
:1022B400002C014003681E4A90420ED0B0F1804FBA
:1022C4000BD0A2F59432904207D002F5806290427E
:1022D40003D002F58062904203D123F070034A6870
:1022E4001343134A90420ED0B0F1804F0BD0A2F5A5
:1022F4009432904207D002F58062904203D002F5F6
:102304008062904203D123F44073CA68134303608C
:102314008B68C3620B888362054B984205D043697E
:1023240043F001034361002070470B690363F6E740
:10233400002C014008B50B461146B3F5807F14D03C
:1023440008D8012B0ED0102B02D1FFF717FF08E09D
:10235400012006E0B3F5805F02D1FFF781FF00E0C2
:10236400012008BDFFF7D4FEFBE7FFF741FFF8E7C4
:102374000B7B8A68134323F480634A68134323F472
:1023840000630A68134323F48053CA89134323F474
:1023940000530A69134323F480434A691343436493
:1023A40000207047C36813F4005F01D00120704718
:1023B40030B585B004460D46C36823F4B05323F00A
:1023C4000C034A68C9680A4329690A431343C36072
:1023D400AB68026922F44052134303616B6942699A
:1023E40022F44072134343616846FFF7C7FD214B53
:1023F4009C420DD0204B9C4210D0204B9C420FD0CD
:102404001F4B9C420ED01F4B9C420DD001202FE04D
:10241400039B63B32A684AB9012029E0029BF8E7C9
:10242400029BF6E7029BF4E7029BF2E703EB8303CC
:1024340003EB83039200B3FBF2F31348A0FB0321E5
:1024440049090A0192B2642505FB11331B01323399
:10245400A0FB0313C3F34F1303F0F0010A4492B239
:1024640003F00F0313449BB2A360002000E001209B
:1024740005B030BD00380140004400400048004031
:10248400004C0040005000401F85EB517047000095
:1024940010B503460C4A0D490D48006840B10C487C
:1024A40000680344521A934206D8094A136010BDC7
:1024B4000748084C0460F2E700F08CFD0C2303602D
:1024C4004FF0FF30F3E700BF0000012000100000D0
:1024D40098010020E003002000B583B00023ADF88C
:1024E40006300BE000F0FCFCFDF7CEFFADF8060073
:1024F4000028F9D142F21070FFF732FA094B1B7829
:10250400632B0AD8FDF7C0FFADF806000028E9D117
:10251400044A137801331370ECE7FEF795F903B01E
:102524005DF804FB9C010020F8B505460C468B8839
:102534001BB91E230B7100234B71FFF7F3F9B4F998
:10254400040000F0E3FB2846FEF7CEFC012852D03D
:10255400FEF71AF80028F6D00528F4D1FEF7C6F9DC
:10256400FEF7CAF95E4A137843F004031370E38854
:102574001BB96423A3710023E371B4F9060000F0CE
:1025840099FB2846FEF7B0FC012855D0FDF7FCFF67
:102594000028F6D00528F4D1FEF7A8F9FEF7ACF927
:1025A4004F4B1A7842F002021A701A7842F0040271
:1025B4001A700023022B00F28D805F1CFFB21E46AE
:1025C400043334F81310384600F0BEFB2846FEF7F7
:1025D4008BFC012850D0FDF7D7FF0028F6D0062841
:1025E4006ED00528F2D1043634F8163004EB4606D2
:1025F400F3803B46DEE76A68A38802EB4202134499
:102604009AB2A380962A0FD90C23237100236371F5
:10261400A088FEF7A9F860802046FEF74BF9B4F9CC
:10262400040000F073FB93E70B2AF1D86FF0690301
:10263400237100236371EBE76A68E38802EB82028B
:1026440013449AB2E380B2F5967F0ED91923A3718D
:102654000023E3712046FEF707F92046FEF72AF926
:10266400B4F9060000F026FB90E7182AF2D82C23D0
:10267400A3710123E371EDE76968321D34F8123068
:102684000B4499B224F8123079B913466FF005025D
:1026940004F8132004EB430300225A70331D34F86A
:1026A4001310384600F050FB95E7FA29F6D9331D8C
:1026B400012204F8132004EB430300225A70EDE7CF
:1026C400043634F8163004EB4606F38027700023F2
:1026D4006370F8BD0323237000236370F9E700BF20
:1026E4004401002008B502F1040C01EB4C0E013248
:1026F400D3B231F91C20BEF9061000F0A1FA08BDCE
:1027040030B583B004460D460023ADF80630274BA0
:10271400187800F0CBFB10E0244B1B7813B9234B43
:1027240004221A7000236360204B187800F0BEFB6B
:10273400FDF72AFFADF8060090B92046FEF7D4FB5A
:102744000128F5D16168194A13780B44DBB2137080
:102754001378DBB2042BDFD9134601221A70E1E7A8
:10276400BDF806309BB2052B06D0062B0FD00F4BBD
:10277400187800F09BFBE0E70C4B1B7803F18043D7
:10278400013B55F823102046FFF7CEFEEFE7074C38
:102794002078237803F18043013B002255F823106D
:1027A400FFF7A0FF2078C0B203B030BD1C000020AA
:1027B40030B583B004460D460023ADF80630FDF76E
:1027C400E3FEADF80600C8B1BDF806309BB2023B8B
:1027D400062B13D8DFE803F0042A2A141B31310036
:1027E4001D4B18781B7803F18043013B55F82310E7
:1027F400FEF7A2F8FDF7A6FF0028FBD103B030BD19
:1028040029462046FFF77CFF134B1870F6E7124B5E
:102814001B78002BF2D0104B18781B7803F18043FF
:10282400013B55F82310FEF773F8E7E700F0DCFAF4
:10283400FEF70CF900F0AAFAE0E700F00BFBFEF754
:10284400D5F8B0F1FF3FFAD000F0EAFAFEF73CF910
:1028540000F09CFAD2E700BF1C000020014B188056
:1028640059807047B4010020832817D81F2915D830
:10287400124B1B7913B1B2FA82F25209012A0ED01B
:10288400CB0803EB431300EB830001F007010123A2
:102894008B400B4A115C21EA030111547047CB08A9
:1028A40003EB431300EB830001F0070101238B408A
:1028B400034A115C19431154704700BFB40100204E
:1028C400BC0100202DE9F843224B1B88832B3DD803
:1028D40081460E4690461F4B5B881F2B38D8002537
:1028E40020E01C4B1888598829442044B8FA88F2FF
:1028F400520989B280B2FFF7B7FF01343378A3429B
:102904000FD907FA04F313F4004FEAD0114B1888D7
:10291400598829442044424689B280B2FFF7A4FF73
:10292400EBE701357278AA4208D97168A9F120034E
:1029340002FB035331F813700024DFE73378054AB0
:1029440011880B4413804846BDE8F8830020FBE758
:102954000020F9E7B401002070B504460E46154680
:1029640000E00134207838B12A463146FFF7AAFF47
:10297400034620788342F4D070BD000008B54FF4BC
:102984000471024800F0FCFA08BD00BFBC0100203D
:1029940070B501210020FFF761FF0F4D0F4B2C464E
:1029A40093E8070003C422700D4E012231462846E5
:1029B400FFF7D2FF11210020FFF750FF094A2B46F1
:1029C40007CA03C32270012231462846FFF7C4FF19
:1029D400FFF7D4FF70BD00BFA00100200C52000817
:1029E400040000201852000870B501210020FFF7F0
:1029F40035FF0F4D0F4B2C4693E8070003C422709C
:102A04000D4E012231462846FFF7A6FF1121002072
:102A1400FFF724FF094A2B4607CA03C32270012289
:102A240031462846FFF798FFFFF7A8FF70BD00BFA7
:102A3400A0010020245200080400002030520008A5
:102A440070B501210020FFF709FF0F4D0F4B2C46F5
:102A540093E8070003C422700D4E01223146284634
:102A6400FFF77AFF11210020FFF7F8FE094A2B46F1
:102A740007CA03C32270012231462846FFF76CFFC0
:102A8400FFF77CFF70BD00BFA00100203C5200088E
:102A9400040000204852000870B501210020FFF70F
:102AA400DDFE0F4D0F4B2C4693E8070003C4227044
:102AB4000D4E012231462846FFF74EFF112100201A
:102AC400FFF7CCFE094A2B4607CA03C32270012232
:102AD40031462846FFF740FFFFF750FF70BD00BFA7
:102AE400A001002054520008040000206052000895
:102AF40008B5074B04225A615038C0B200F036FAC8
:102B0400002000F033FA102000F030FA08BD00BFB6
:102B1400000C014008B50C4B1B7953B1012806D0B9
:102B2400FF214FF40472094800F07EFA08BD002129
:102B3400F7E730B900214FF40472044800F074FA46
:102B4400F4E7FF21F7E700BFB4010020BC01002037
:102B540008B50020FFF7DEFF08BD000070B5324C59
:102B64000125656140F6B830FEF7FAFE256140F6AE
:102B7400B830FEF7F5FE04266661AE2000F0F6F9E3
:102B8400812000F0F3F9FF2000F0F0F9A62000F016
:102B9400EDF9A42000F0EAF9202000F0E7F9022082
:102BA40000F0E4F9B02000F0E1F9002000F0DEF9D3
:102BB400102000F0DBF9402000F0D8F9A12000F04B
:102BC400D5F9A82000F0D2F91F2000F0CFF9C820D1
:102BD40000F0CCF9D32000F0C9F9002000F0C6F9C8
:102BE400DA2000F0C3F9122000F0C0F9D52000F07B
:102BF400BDF9F02000F0BAF9DB2000F0B7F920208D
:102C040000F0B4F9AF2000F0B1F941F28830FEF7DA
:102C1400A7FEFFF79DFFFFF7B1FE044B00221A80C9
:102C24005A805D71266170BD000C0140B401002022
:102C340008B501210020FFF711FEFFF789FF08BD49
:102C44002DE9F04182B080460E4617461D46FFF737
:102C5400EFFF01210020FFF701FE114C4346114A0A
:102C64001421204600F0E8F901220F492046FFF71D
:102C740073FE0E210020FFF7F1FD019700962B460D
:102C84000A4A1421204600F0D7F9012208492046B7
:102C9400FFF762FEFFF772FE02B0BDE8F08100BFED
:102CA400A00100206C520008140000207852000893
:102CB4000400002070B582B0104B83FB0023C417BE
:102CC400C4EB6314E6B2642303FB1400C4B206210C
:102CD4000020FFF7C3FDFFF73BFF094D0094334687
:102CE400084A1421284600F0A7F90122064928467B
:102CF400FFF732FEFFF742FE02B070BD1F85EB51B5
:102D0400A0010020885200080C00002038B50446B9
:102D140006210020FFF7A2FDFFF71AFF074D234607
:102D2400074A1421284600F087F90122054928465C
:102D3400FFF712FEFFF722FE38BD00BFA0010020FE
:102D4400945200080C00002070B582B004460D4671
:102D5400FFF7FEFE06210020FFF780FD084E0095D8
:102D64002346084A1421304600F066F90122064938
:102D74003046FFF7F1FDFFF701FE02B070BD00BF62
:102D8400A00100209C5200080C00002038B5FFF779
:102D94004FFF01210020FFF761FD0F4C0F4B93E81B
:102DA40003002060A180090CA1710D4D0122294668
:102DB4002046FFF7D1FD11213C20FFF74FFD094BC1
:102DC40093E8030020602171012229462046FFF781
:102DD400C3FDFFF7D3FD38BDA0010020A8520008B1
:102DE40004000020B052000810B5FFF721FF0121B4
:102DF4000020FFF733FD074C074A234607CA03C3E5
:102E04001A70012205492046FFF7A6FDFFF7B6FD1B
:102E140010BD00BFA0010020B8520008040000202B
:102E240008B5FFF705FF01210020FFF717FD064B4A
:102E3400064A07CA83E80700012205491846FFF736
:102E44008BFDFFF79BFD08BDA0010020C4520008C4
:102E54000400002038B5FFF7EBFE01210020FFF746
:102E6400FDFC0E4C0E4B93E8070084E807000D4D63
:102E7400012229462046FFF76FFD11210020FFF7AC
:102E8400EDFC094B93E8070084E80700012229467A
:102E94002046FFF761FDFFF771FD38BDA00100205A
:102EA400C452000804000020D052000810B50446A3
:102EB400FFF7BEFE601E03280FD8DFE800F002050E
:102EC400080BFFF7E9FD10BDFFF762FDFBE7FFF715
:102ED4008BFDF8E7FFF7B4FDF5E7FFF7DDFDF2E75B
:102EE40038B5FFF7A5FE01210020FFF7B7FC0E4C13
:102EF4000E4B93E8030084E803000D4D012229469C
:102F04002046FFF729FD11214120FFF7A7FC094BBB
:102F140093E803002060A180012229462046FFF7A0
:102F24001BFDFFF72BFD38BDA0010020DC5200087B
:102F340004000020E452000808B501210020FFF736
:102F44008DFC074B074A92E8030018609980012220
:102F540005491846FFF700FDFFF710FD08BD00BF47
:102F6400A0010020EC5200080C00002008B5034B1F
:102F740002225A61FEF78EF908BD00BF000C014021
:102F840008B5FEF791F908BDFFF780FA0B480C4924
:102F94000C4A002302E0D458C4500433C4188C42B1
:102FA400F9D3094A094C002301E013600432A24218
:102FB400FBD300F015F8FDF79DF9704700000020E1
:102FC400840000203053000884000020DC0300202B
:102FD400FEE70000014B1868704700BF2000002086
:102FE40070B500260C4D0D4C641BA410A64209D1EB
:102FF40000F0B0FC00260A4D0A4C641BA410A64243
:1030040005D170BD55F8043B98470136EEE755F8F5
:10301400043B98470136F2E7285300082853000878
:10302400285300082C53000803460244934200D15D
:10303400704703F8011BF9E70CB430B5174B0C1EAD
:103044001D689DB008DA8B234FF0FF302B601DB054
:10305400BDE8304002B070474FF40273ADF814304D
:103064000CBF234604F1FF33049307934FF6FF7319
:1030740002900690ADF81630284621AB209A02A99A
:10308400019300F069F8431CBCBF8B232B60002C18
:10309400DDD00022029B1A70D9E700BF2000002077
:1030A4002DE9F0478E6882469E420C4690461F46A4
:1030B40038D88A8912F4906F32D0256809690133AF
:1030C400A5EB010965694B4405EB450505EBD57591
:1030D4006D109D4238BF1D46530531D5294600F079
:1030E4006FFB064650B90C234FF0FF30CAF800308E
:1030F400A38943F04003A381BDE8F0874A462169D0
:1031040000F0CEFAA38923F4906343F08003A381F3
:1031140026614E4426603E466561A5EB0905A5601F
:10312400BE4200D93E4632464146206800F0C6FA07
:10313400A36800209B1BA360236833442360DBE760
:103144002A4600F0B1FB06460028E1D15046216929
:1031540000F0CEFAC7E700002DE9F04F98468B89BE
:1031640007461B060D4614469DB00ED50B6963B980
:10317400402100F025FB2860286120B90C233B6026
:103184004FF0FF30D1E040236B61002309932023EB
:103194008DF8293030234FF00109CDF80C80DFF889
:1031A400A4818DF82A3023469A4613F8012B0AB1DC
:1031B400252AF9D1BAEB040B0BD05B4622462946EB
:1031C4003846FFF76DFF013000F0AA80099A5A448F
:1031D40009929AF80030002B00F0A28000234FF0EF
:1031E400FF32CDE905230AF1010A049307938DF810
:1031F40053301A935446052214F8011B514800F029
:1032040041FA049AD8B9D00644BF20238DF853302C
:10321400110744BF2B238DF853309AF800302A2B22
:1032240015D0544600204FF00A0C079A214611F895
:10323400013B303B092B4ED9B0B1079214E0A0EB0F
:10324400080309FA03F31343A2460493D2E7039B4A
:10325400191D1B680391002BBBBF5B4242F00202A5
:1032640007930793B8BF049223782E2B0CD163786D
:103274002A2B35D1039B02341A1D1B680392002BA1
:10328400B8BF4FF0FF330593DFF8BCA003225046CC
:10329400217800F0F7F940B14023A0EB0A0003FACB
:1032A40000F0049B01340343049314F8011B062229
:1032B40026488DF8281000F0E5F9002838D0244B72
:1032C4001BBB039B073323F0070308330393099BBA
:1032D4003344099367E70C4601200CFB0232A5E74F
:1032E40000234FF00A0C194601340593204610F8C8
:1032F400012B303A092A03D9002BC5D00591C3E725
:10330400044601230CFB0121F0E703AB00932A469A
:103314003846104B04A9AFF30080421C0646D6D1B0
:10332400AB895B063FF52CAF09981DB0BDE8F08F63
:1033340003AB00932A463846064B04A900F07CF8F8
:10334400EBE700BFF2520008F8520008FC520008F4
:1033540000000000A53000082DE9F0471646994604
:103364008A680B6907469342B8BF1346336091F8E5
:1033740043200C46DDF820800AB101333360236812
:10338400990642BF336802333360256815F0060599
:1033940006D104F1190AE36832689B1AAB4228DCAF
:1033A40094F84320131E226818BF012392062DD4DB
:1033B4004946384604F14302C047013020D023680F
:1033C400E56803F00603042B18BF002532684FF0AC
:1033D4000006A36808BFAD1A226908BF25EAE5758F
:1033E4009342C4BF9B1AED181A34B5421AD1002077
:1033F40008E00123524649463846C047013003D10C
:103404004FF0FF30BDE8F0870135C4E73020E11804
:1034140081F843005A1C94F845102244023382F880
:103424004310C5E70123224649463846C0470130C8
:10343400E6D00136D9E700002DE9FF470F7E91461B
:10344400782F80460C469A460C9D01F1430207D81A
:10345400622F0AD8002F00F0D980582F00F0A480E2
:1034640004F1420584F842703AE0A7F16303152B96
:10347400F6D801A151F823F0D5340008E934000846
:1034840065340008653400086534000865340008B4
:10349400E934000865340008653400086534000820
:1034A40065340008F735000819350008D9350008D7
:1034B40065340008653400081936000865340008CE
:1034C400193500086534000865340008E135000842
:1034D4002B681A1D1B682A6004F1420584F84230E7
:1034E4000123A4E020682968060601F104030AD533
:1034F4000E682B60002E03DA2D23764284F84330C5
:103504000A235E4819E00E6810F0400F2B6018BFC4
:1035140036B2EFE72B682068191D2960010601D532
:103524001E6802E04606FBD51E886F2F0CBF0823D9
:103534000A235248002184F843106568002DA8BF6F
:103544002168A560A4BF21F0040121600EB9002DFB
:103554004DD01546B6FBF3F103FB1167C75D05F8C3
:10356400017D3746BB420E46F4D9082B0BD12368A4
:10357400DE0708D5236961689942DEBF302305F868
:10358400013C05F1FF35521B22614B462146404662
:10359400CDF800A003AAFFF7DFFE01304CD14FF0B5
:1035A400FF3004B0BDE8F087344881F845702968DD
:1035B400236851F8046B29601D0614D5DF0744BF46
:1035C40043F0200323601EB9236823F02003236003
:1035D4001023AFE7236843F02003236078232848AF
:1035E40084F84530E3E7590648BFB6B2E6E7154626
:1035F400BBE72B682668181D6169286035061B68BF
:1036040001D5196002E07006FBD519800023154628
:103614002361BAE72B6800211A1D2A601D686268BD
:10362400284600F02FF808B1401B606063682361EE
:10363400002384F84330A8E72A46494640462369D4
:10364400D0470130ABD023689B0713D4E068039BB9
:103654009842B8BF1846A4E701233246494640467B
:10366400D04701309BD00135E36803995B1AAB4224
:10367400F2DCEBE7002504F11906F5E70353000833
:1036840014530008034610B5C9B2024493421846C5
:1036940001D1002003E0047801338C42F6D110BD3F
:1036A4000A44914200F1FF3300D1704710B511F87C
:1036B400014B914203F8014FF9D110BD884210B576
:1036C40001EB020402D98442234607D8431EA142D7
:1036D40008D011F8012B03F8012FF8E70146024442
:1036E4008A4200D110BD13F8014D02F8014DF7E7ED
:1036F40038B50546002940D051F8043C0C1F002B76
:10370400B8BFE41800F010F91C4A136833B96360B9
:1037140014602846BDE8384000F00CB9A34208D92B
:10372400206821188B4201BF19685B680918216061
:10373400EDE71A465B680BB1A342FAD91168501839
:10374400A0420BD120680144501883421160E0D19B
:1037540018685B68014411605360DAE702D90C23EE
:103764002B60D6E7206821188B4201BF19685B687B
:103774000918216063605460CBE738BDCC03002096
:1037840070B50E4E0C463168054611B900F0BCF810
:1037940030602146284600F0B7F8431C0AD0C41C08
:1037A40024F00304A04207D0211A284600F0ACF804
:1037B400013001D14FF0FF34204670BDD00300200A
:1037C4002DE9F041CD1C25F0030508350C2D38BF3B
:1037D4000C25002D074601DBA94205D90C23002640
:1037E4003B603046BDE8F0812E4E00F09DF8336812
:1037F4001C4634BB29463846FFF7C2FF431C044627
:103804004DD134682646002E40D1236831463846CF
:1038140004EB030800F078F880453AD121680335B9
:103824006D1A25F0030508350C2D38BF0C253846D4
:103834002946FFF7A5FF01302BD023682B442360D2
:103844000EE02268521B1ED40B2A16D96119A3421A
:10385400256018BF5960636808BF316062514B60CE
:10386400384604F10B0600F065F826F00706231D20
:10387400F21AB6D09B1BA350B3E76268A3420CBFF5
:1038840032605A60ECE723466468B2E734467668EF
:10389400B9E70C2338463B6000F04CF8A1E72560FB
:1038A400DEE700BFCC0300202DE9F041804614463A
:1038B4000E4621B91146BDE8F041FFF781BF2AB990
:1038C400FFF716FF25462846BDE8F08100F038F8DA
:1038D4008442074602D8B4EB500F12D82146404622
:1038E400FFF76EFF05460028EDD0BC422246314664
:1038F40028BF3A46FFF7D4FE31464046FFF7F8FEAC
:10390400E1E73546DFE7000038B50023054D0446FE
:1039140008462B60FEF7BCFD431C02D12B6803B1A3
:10392400236038BDD4030020014800F011B800BF63
:10393400D8030020014800F00CB800BFD8030020D1
:1039440051F8043C181F002BBCBF0B58C01870471B
:1039540070477047F8B500BFF8BC08BC9E46704776
:0C396400F8B500BFF8BC08BC9E467047D8
:10397000000000000000000001020304060708091F
:10398000000000000102030400000000000000002D
:103990000000000000000000000000000000000027
:1039A000000000000000000000000000000C000CFF
:1039B000000C000C000C000C000C000C000C000CA7
:1039C000000C0000000C000C000000000000001BB8
:1039D000001B001B001B001B00000000000000007B
:1039E00000000000000000000000000000000000D7
:1039F0008019801980198019C07FC07F8019003319
:103A0000C07FC07F0033003300330033000000006C
:103A10000000001E003F807580650074003C001EA1
:103A200000078005806580658075003F001E0004EA
:103A300000040000007000D840D8C0D880D90073BE
:103A40000006000C801BC036C066C046C00680035E
:103A5000000000000000001E003F00330033003370
:103A6000001E000CC03CC066806380618063C03E65
:103A7000801C000000000000000C000C000C000C7A
:103A8000000C00000000000000000000000000002A
:103A9000000000000000000080000001000300069C
:103AA00000060004000C000C000C000C000C000CC4
:103AB00000040006000600030001002000100018AA
:103AC000000C000C000400060006000600060006BC
:103AD00000060004000C000C0018001080034004D5
:103AE00040044004800300000000000000000000CB
:103AF00000000000000000000000000000000000C6
:103B000000000000000C000C000C000CC0FFC0FF07
:103B1000000C000C000C000C000000000000000075
:103B20000000000000000000000000000000000095
:103B30000000000000000000000C000C0004000465
:103B4000000800000000000000000000000000006D
:103B500000000000001E001E000000000000000029
:103B60000000000000000000000000000000000055
:103B70000000000000000000000000000000000C39
:103B8000000C00000000000000030003000300061A
:103B9000000600060006000C000C000C000C0018CB
:103BA00000180018000000000000001E003F003355
:103BB00080618061806180618061806180618061FD
:103BC0000033003F001E0000000000000006000E51
:103BD000001E00360026000600060006000600064D
:103BE0000006000600060006000000000000001E9F
:103BF000003F807380618061800100030006000C3B
:103C0000001800300060807F807F0000000000000E
:103C1000001C003E006300630003000E000E000362
:103C20008001800180618073003F001E0000000061
:103C300000000006000E000E001E001E00160036DA
:103C400000360066807F807F0006000600060000C8
:103C500000000000007F007F006000600060006ED8
:103C6000007F80638001800180618073003F001EBF
:103C7000000000000000001E003F803380610060F3
:103C8000006E007F80738061806180618033003FBF
:103C9000001E000000000000807F807F8001000384
:103CA000000300060006000C000C000C00080018C1
:103CB00000180018000000000000001E003F806394
:103CC000806180610021001E003F80618061806111
:103CD0008061003F001E000000000000001E003F49
:103CE00000738061806180618073803F801D8001EE
:103CF00080610073003F001E000000000000000013
:103D0000000000000000000C000C0000000000009B
:103D1000000000000000000C000C0000000000008B
:103D20000000000000000000000C000C000000007B
:103D3000000000000000000C000C0004000400085B
:103D4000000000000000000080008003000E00382A
:103D500000600038000E80038000000000000000BA
:103D6000000000000000000000000000807F807F55
:103D700000000000807F807F000000000000000045
:103D80000000000000000000000000000040007083
:103D9000001C000780010007001C007000400000AC
:103DA0000000000000000000001F803FC071C060E4
:103DB000C000C00180030007000E000C000C0000D2
:103DC000000C000C000000000000001E003F8031CD
:103DD00080718063806F806D806D806F8067006010
:103DE0000032003E001C000000000000000E000E2B
:103DF000001B001B001B001B80318031803F803F77
:103E00008031C060C060C060000000000000007C25
:103E1000007E0063006300630063007E007E006339
:103E2000806180618063007F007E000000000000F0
:103E3000001E003F80318061006000600060006013
:103E40000060006080618031003F001E00000000C3
:103E50000000007C007F006380638061806180617E
:103E600080618061806100630063007E007C0000EF
:103E700000000000807F807F0060006000600060C4
:103E8000007F007F0060006000600060807F807FB6
:103E9000000000000000807F807F00600060006004
:103EA0000060007F007F00600060006000600060D4
:103EB0000060000000000000001E003F80318061B3
:103EC0000060006000608063806380618061803199
:103ED000803F001E00000000000080618061806162
:103EE000806180618061807F807F8061806180618E
:103EF000806180618061000000000000003F003FA1
:103F0000000C000C000C000C000C000C000C000C51
:103F1000000C000C003F003F00000000000080018A
:103F20008001800180018001800180018001800189
:103F3000806180618073003F001E0000000000006F
:103F4000C0608061006300660066006C0078007CE1
:103F500000660066006380618061C0600000000050
:103F600000000060006000600060006000600060B1
:103F700000600060006000600060807F807F000063
:103F800000000000C071C071C07BC07AC06AC06A06
:103F9000C06EC064C060C060C060C060C060C0600F
:103FA0000000000000008071807180798079807944
:103FB000806D806D806D80658067806780678063BD
:103FC0008063000000000000001E003F003380619D
:103FD0008061806180618061806180618061003387
:103FE000003F001E000000000000007E007F806394
:103FF0008061806180618063007F007E006000607E
:10400000006000600060000000000000001E003F33
:104010000033806180618061806180618061806542
:1040200080670033803F401E000000000000007EDB
:10403000007F8063806180618063007F007E006616
:104040000063006380618061C060000000000000C8
:10405000000E001F8031803100300038001E000744
:104060008003806180618031003F001E00000000FD
:104070000000C0FFC0FF000C000C000C000C000C86
:10408000000C000C000C000C000C000C000C0000DC
:1040900000000000806180618061806180618061DA
:1040A000806180618061806180618073003F001E5B
:1040B000000000000000C060C060C060803180313E
:1040C0008031001B001B001B001B000E000E000EA9
:1040D0000004000000000000C0C0C0C0C0C0C0C0DC
:1040E000C0C0C0CC804C804C805E805280528073B7
:1040F00080618061000000000000C0C080608061BD
:104100000033003B001E000C000C001E001F003B93
:1041100080718061C0C0000000000000C0C08061EC
:10412000806100330033001E001E000C000C000CE8
:10413000000C000C000C000C000000000000803F90
:10414000803F8001000300030006000C000C0018F3
:10415000001800300060807F807F000000000000B9
:10416000000000000000000000000000000000004F
:10417000000000000000000000000000000000003F
:10418000000000000000000000000000000000002F
:1041900000000000E003E003E003E003E003E003CD
:1041A000E003E003C003C003C001C001C001C001BF
:1041B000C001000000000000E003E003E003000095
:1041C00000000000000000003C1E3C1E3C1E3C1E87
:1041D0003C1E3C1E3C1E00000000000000000000D1
:1041E00000000000000000000000000000000000CF
:1041F000000000000000000000000000CE01CE031F
:10420000DE039E039C039C07FF3FFF7F3807380FA8
:10421000780F780F780EFFFFFFFFF01EF01CE01CF8
:10422000E03CE03DE039000000000000000000003C
:10423000FC03FE0FEE1FE01EE01EE01EE01EE01F6E
:10424000E00FE007F003FC01FE01FE01FE01FE01AC
:10425000FE01FE01FE3DFC3FF00FE001E001000029
:1042600000000000033E07F78FE78EE79EE3BCE304
:10427000B8E7F8E7F0F7E03FC001FF03FF07F307F7
:10428000F30FF31EF33CF338F3787FF03FE00000C8
:104290000000000000000000E007F80F780F781F12
:1042A000781F781F780FF00FE00F801FC37FC3FBCC
:1042B000E7F3F7F1F7F0FFF07FF03EF87F7CFF3F88
:1042C000EF1F00000000000000000000E003E0031A
:1042D000E003C003C003C001C000C0000000000034
:1042E00000000000000000000000000000000000CE
:1042F00000000000000000000000000000000000BE
:104300003F007C00F001E001C003C0078007800788
:10431000800F000F000F000F000F000F000F800F25
:1043200080078007C007C003E001F0017C003F0068
:104330000F000000007E001FC007C003E001F00175
:10434000F000F000F800780078007800780078003D
:104350007800F800F000F000F001E001C003C007B1
:10436000001F007E00780000C001E003180C180C4C
:10437000180C180CE003C001000000000000000051
:10438000000000000000000000000000000000002D
:10439000000000000000000000000000000000001D
:1043A0000000000000000000C001C001C001C00109
:1043B000C001C001C001FFFFFFFFC001C001C0017B
:1043C000C001C001C00100000000000000000000AA
:1043D00000000000000000000000000000000000DD
:1043E00000000000000000000000000000000000CD
:1043F0000000E003E003E003E003E001E001E0018E
:10440000C001800300000000000000000000000068
:1044100000000000000000000000FE3FFE3F000022
:10442000000000000000000000000000000000008C
:10443000000000000000000000000000000000007C
:10444000000000000000000000000000000000006C
:1044500000000000000000000000E003E003E003B3
:10446000E003000000000000000000000F000F004B
:104470001E001E003C003C0078007800F000F000B8
:10448000E001E001C003C00380078007000F000FB8
:10449000001E001E003C003C0078007800F0000088
:1044A000F007F80F7C1F3E3E1E3C1F7C1F7C0F78E0
:1044B0000F780F780F780F780F780F781F7C1F7C9C
:1044C0001E3C3E3E7C1FF80FF0070000000000007D
:1044D00000000000F000F007F03FF03FF001F001B5
:1044E000F001F001F001F001F001F001F001F00144
:1044F000F001F001F001F001F001FF3FFF3F00008B
:104500000000000000000000E00FF83F7C3C3C0091
:104510003E003E003E003C003C007C00F800F00104
:10452000E003C0078007000F001E003E003CFE3F76
:10453000FE3F00000000000000000000F00FF81F28
:104540007C1C3E003E003E003C003C00F800F00FAA
:10455000F80F7C003E001E001E001E001E003E00E4
:104560007C1CF81FE01F000000000000000000009D
:104570007800F800F800F801F803F807F807780F5A
:10458000781E781E783C78787878FFFFFFFF7800F7
:1045900078007800780078007800000000000000C3
:1045A00000000000FC1FFC1FFC1F001E001E001E60
:1045B000001E001EE01FF81FFC007C003E003E00B5
:1045C0001E003E003E003C007C1CF81FE01F000067
:1045D0000000000000000000FC01FE078E0F001F1D
:1045E000001E003E003C003CF83DFC3F3E7F1F7E2D
:1045F0000F3C0F3C0F3C0F3C0F3E1F1E3E1FFC0F9D
:10460000F00300000000000000000000FF3FFF3F3B
:10461000FF3F0F001E001E003C0038007800F00035
:10462000F000E001E001C003C0038007800F800FAD
:10463000000F001F001F000000000000000000002D
:10464000F807FC0F3E1F1E1E1E3E1E3E1E1E3C1F78
:10465000F80FF007F80FFC1E3E3E1F3C1F7C0F7C3E
:104660000F7C1F3C3E3FFC1FF007000000000000D5
:1046700000000000F007F80F7C1E3E3C1E3C1F7C33
:104680001F7C1F7C1F7C1F3C3F3EFF1FEF071F004E
:104690001E001E003E003C00F838F03FE01F000006
:1046A000000000000000000000000000000000000A
:1046B00000000000E003E003E003E003000000006E
:1046C00000000000000000000000E003E003E00341
:1046D000E0030000000000000000000000000000F7
:1046E0000000000000000000E003E003E003E0033E
:1046F0000000000000000000000000000000E003D7
:10470000E003E003E003E001E001E001C003800317
:1047100000000000000000000000000003000F0087
:104720003F00FC00F003C00F003F00FE003FC00F41
:10473000F003FC003F000F00030000000000000039
:104740000000000000000000000000000000000069
:104750000000000000000000FFFFFFFF000000005D
:104760000000FFFFFFFF000000000000000000004D
:104770000000000000000000000000000000000039
:104780000000000000E000F8007E801FE007F80154
:104790007E001F007E00F801E007801F007E00F809
:1047A00000E000000000000000000000F01FFC3FDF
:1047B0003E381F381F381E001E003C007800F000F5
:1047C000E001C003C003C007C007000000000000F4
:1047D000C007C007C0070000000000000000000084
:1047E000F803FE0F1E1F0F3E7F3CFF78EF79C77363
:1047F000C7F38FF38FF38FF39FF39FF3FF73FF7B69
:10480000F779003C1C1FFC0FF803000000000000BB
:1048100000000000000000000000E003E003F007DB
:10482000F007F007780F780F7C0E3C1E3C1E3E3CD4
:10483000FE3FFF3F1F780F780FF007F007F00000F2
:104840000000000000000000000000000000F83F31
:10485000FC3F3E3C1E3C1E3C1E3C3E3C7C3CF03F34
:10486000F83F7E3C1F3C1F3C0F3C0F3C1F3CFE3F73
:10487000F83F000000000000000000000000000001
:104880000000FF01FF07871F003E003C007C00780E
:104890000078007800780078007C007C003E003FC3
:1048A000831FFF07FF010000000000000000000060
:1048B000000000000000F07FFC7F7E781F781F78EA
:1048C0000F780F780F780F780F780F780F780F78B0
:1048D0001F781E787E78F87FE07F000000000000DF
:1048E00000000000000000000000FF3FFF3F003E0E
:1048F000003E003E003E003E003EFE3FFE3F003ECA
:10490000003E003E003E003E003EFF3FFF3F0000F5
:104910000000000000000000000000000000FF1F79
:10492000FF1F001E001E001E001E001E001EFF1F97
:10493000FF1F001E001E001E001E001E001E001E87
:10494000001E000000000000000000000000000049
:104950000000FE03FF0F871F003E007C007C0078F4
:1049600000F800F87FF87FF80F780F7C0F7C0F3E7F
:104970008F1FFF0FFE03000000000000000000007A
:104980000000000000001F7C1F7C1F7C1F7C1F7C20
:104990001F7C1F7C1F7CFF7FFF7F1F7C1F7C1F7C79
:1049A0001F7C1F7C1F7C1F7C1F7C00000000000000
:1049B00000000000000000000000FF3FFF3FE00398
:1049C000E003E003E003E003E003E003E003E003CF
:1049D000E003E003E003E003E003FF3FFF3F0000EC
:1049E0000000000000000000000000000000FC1FAC
:1049F000FC1F7C007C007C007C007C007C007C0038
:104A00007C007C007C007C0078007800F838F03F67
:104A1000C03F000000000000000000000000000097
:104A200000001F3C1E3C3C3C783CF03CE03DE03F3D
:104A3000C03F803FC03FE03FF03DF03C783C7C3CD5
:104A40003E3C1F3C0F3C0000000000000000000046
:104A5000000000000000003E003E003E003E003E20
:104A6000003E003E003E003E003E003E003E003E56
:104A7000003E003E003EFF3FFF3F00000000000000
:104A8000000000000000000000001FF81FFC1FFCD9
:104A90003FFE3FFE3FFE7FFF77FF77FFF7F7E7F729
:104AA000E7F3E7F3C7F307F007F007F007F00000BC
:104AB00000000000000000000000000000000F7C6B
:104AC0000F7C0F7E0F7F0F7F8F7F8F7FCF7FEF7BDE
:104AD000EF79FF79FF78FF787F783F783F781F780C
:104AE0001F7800000000000000000000000000002F
:104AF0000000F007FC1F3E3E1F7C0F780F780FF878
:104B00000FF80FF80FF80FF80FF80F780F781F7CD9
:104B10003E3EFC1FF0070000000000000000000007
:104B2000000000000000FC3FFF3F1F3E0F3E0F3E15
:104B30000F3E0F3E1F3E3F3EFC3FF03F003E003E1B
:104B4000003E003E003E003E003E0000000000002F
:104B500000000000000000000000F007FC1F3E3EC7
:104B60001F7C0F780F780FF80FF80FF80FF80FF879
:104B70000FF80F780F781F7C3E3EFC1FF8077C0073
:104B80003F000F0003000000000000000000F03FA5
:104B9000FC3F7E3C3E3C1E3C1E3C3E3C3C3CFC3CC8
:104BA000F03FE03FF03DF83C7C3C3E3C1E3C1F3C6F
:104BB0000F3C0000000000000000000000000000AA
:104BC0000000FC07FE1F0E3E003C003C003C003E87
:104BD000C01FF80FFE037F001F000F000F001F20F3
:104BE0003E3CFC3FF01F0000000000000000000001
:104BF000000000000000FFFFFFFFE003E003E00310
:104C0000E003E003E003E003E003E003E003E0038C
:104C1000E003E003E003E003E00300000000000025
:104C2000000000000000000000000F7C0F7C0F7CE3
:104C30000F7C0F7C0F7C0F7C0F7C0F7C0F7C0F7C1C
:104C40000F7C0F7C1E3C1E3C3E3EFC1FF00700000C
:104C5000000000000000000000000000000007F05D
:104C600007F007F80F780F7C1E3C1E3C1E3E3C1ED2
:104C70003C1F781F780FF80FF007F007F007E003EC
:104C8000E003000000000000000000000000000041
:104C9000000003E003F003F007F0E7F3E7F3E7F3C6
:104CA000E773F77BF77FFF7F7F7F7F7F7E7F7E3F8E
:104CB0003E3E3E3E3E3E0000000000000000000080
:104CC00000000000000007F80F7C1E3E3E3E3C1F27
:104CD000F80FF007E007E003E003F007F80F7C0FA0
:104CE0007C1E3E3C1F780F780FF000000000000093
:104CF0000000000000000000000007F807780F7CAB
:104D00001E3C1E3E3C1F780FF80FF007E003E00347
:104D1000E003E003E003E003E003E003E00300005E
:104D20000000000000000000000000000000FF7F05
:104D3000FF7F0F001F003E007C00F800F000E00144
:104D4000E003C007800F000F001E003E007CFF7FC5
:104D5000FF7F0000000000000000000000000000D5
:104D60000000000000000000000000000000000043
:104D700000100010001000100010001000000010C3
:104D800000000000002800280028000000000000AB
:104D9000000000000000000000240024007C00242B
:104DA0000048007C00480048000000000038005423
:104DB0000050003800140054005400380010000067
:104DC000002000540058003000280054001400084F
:104DD00000000000001000280028001000340048E7
:104DE0000048003400000000001000100010000017
:104DF000000000000000000000000000000800109B
:104E000000200020002000200020002000100008CA
:104E10000020001000080008000800080008000832
:104E200000100020001000380010002800000000D2
:104E30000000000000000000000000000010001052
:104E4000007C0010001000000000000000000000C6
:104E50000000000000000000000000100010001022
:104E6000000000000000000000000038000000000A
:104E70000000000000000000000000000000000032
:104E800000000010000000000008000800100010E2
:104E90000010001000200020000000000038004436
:104EA0000044004400440044004400380000000076
:104EB0000010003000500010001000100010001012
:104EC0000000000000380044004400040008001006
:104ED0000020007C0000000000380044000400189E
:104EE000000400040044003800000000000800181E
:104EF000002800280048007C00080008000000008E
:104F0000007C0040004000780004000400440038A9
:104F100000000000003800440040007800440044D5
:104F20000044003800000000007C0004000800106D
:104F30000010002000200020000000000038004485
:104F400000440038004400440044003800000000E1
:104F50000038004400440044003C00040044003891
:104F60000000000000000000001000000000000031
:104F70000000001000000000000000000000001011
:104F800000000000000000100010001000000000F1
:104F9000000C003000400030000C00000000000059
:104FA000000000000000007C0000007C0000000009
:104FB000000000000000000000600018000400185D
:104FC00000600000000000000038004400040008F9
:104FD0000010001000000010000000000038004425
:104FE000004C0054005C004000400038000000000D
:104FF00000100028002800280028007C00440044FD
:1050000000000000007800440044007800440044A0
:1050100000440078000000000038004400400040D8
:1050200000400040004400380000000000700048CC
:1050300000440044004400440048007000000000A8
:10504000007C00400040007C004000400040007CAC
:1050500000000000007C004000400078004000405C
:1050600000400040000000000038004400400040C4
:10507000005C00440044003800000000004400448C
:105080000044007C00440044004400440000000050
:105090000038001000100010001000100010003840
:1050A00000000000000400040004000400040004E8
:1050B0000044003800000000004400480050006038
:1050C000005000480048004400000000004000403C
:1050D00000400040004000400040007C0000000014
:1050E0000044006C006C0054004400440044004440
:1050F0000000000000440064006400540054004CB0
:10510000004C00440000000000380044004400440B
:1051100000440044004400380000000000780044CF
:1051200000440044007800400040004000000000BF
:105130000038004400440044004400440054003857
:105140000004000000780044004400440078004857
:1051500000480044000000000038004400400030D7
:10516000000800040044003800000000007C00102B
:1051700000100010001000100010001000000000CF
:10518000004400440044004400440044004400380B
:1051900000000000004400440044002800280028CB
:1051A00000100010000000000044004400540054AF
:1051B0000054006C00280028000000000044002873
:1051C0000028001000100028002800440000000003
:1051D00000440044002800280010001000100010B7
:1051E00000000000007C00040008001000100020F7
:1051F0000040007C000000000018001000100010AB
:10520000001000100010001000100018205052452F
:1052100053455431000000003E505245534554322E
:10522000000000003E50524553455433000000003A
:105230002050524553455434000000002050524540
:1052400053455433000000003E50524553455434FA
:10525000000000003E50524553455431000000000C
:1052600020505245534554320000000050524553DF
:1052700045542575000000002575433A25303364F8
:105280002F2530336400000052543A25752E253006
:10529000327500002533752052504D002575433A74
:1052A0002530336C6400000053454C4543540000E6
:1052B0004D4F444500000000534554204E554C4C82
:1052C000000000004D414E55414C204D4F444500DB
:1052D0003C2D534554204449522D3E0052454C45E7
:1052E00041534500504544414C0000005354415245
:1052F0005400232D302B2000686C4C0065666745F8
:10530000464700303132333435363738394142433D
:1053100044454600303132333435363738396162EE
:085320006364656600000000F3
:04532800090200086E
:04532C00E50100088F
:105330000024F4000B11000088390008101A000046
:1053400060410008070A00005C4D000801000000F1
:105350002400002000000000000000000000000009
:10536000000000000000000000000000000000003D
:10537000000000000000000000000000000000002D
:10538000000000000000000000000000000000001D
:10539000000000000000000000000000000000000D
:1053A00000000000000000000000000000000000FD
:0453B00000000000F9
:0400000508002F8D33
:00000001FF
