:020000040800F2
:1000000000000120B53200089D1E00089F1E000858
:10001000A11E0008A31E0008A51E00080000000085
:10002000000000000000000000000000A71E000803
:10003000A91E000800000000AB1E0008AD1E00084D
:10004000FD320008FD320008FD320008FD320008D4
:10005000FD320008FD320008FD320008FD320008C4
:10006000B11E0008FD320008FD320008FD32000814
:10007000FD320008FD320008FD320008D11E0008E4
:10008000FD320008FD320008FD320008FD32000894
:10009000FD320008FD320008FD320008FD32000884
:1000A000FD320008FD320008FD320008FD32000874
:1000B000FD320008FD320008E11B0008FD32000897
:1000C000FD320008FD320008FD320008FD32000854
:1000D000FD320008FD320008FD320008FD32000844
:1000E000FD1E0008FD320008FD320008000000007F
:1000F0000000000000000000000000000000000000
:100100000000000000000000511B0008FD32000844
:10011000FD320008FD320008311C0008FD320008E5
:10012000FD320008FD320008FD320008FD320008F3
:10013000FD3200080000000000000000FD32000851
:10014000FD320008FD320008FD320008FD320008D3
:10015000000000000000000000000000000000009F
:10016000000000000000000000000000000000008F
:10017000000000000000000000000000000000007F
:10018000000000000000000000000000000000006F
:10019000000000000000000000000000000000005F
:1001A000000000000000000000000000000000004F
:1001B000000000000000000000000000000000003F
:1001C000000000000000000000000000000000002F
:1001D000000000000000000000000000000000001F
:0401E0005FF8E0F1F3
:1001E40010B5054C237833B9044B13B10448AFF36D
:1001F40000800123237010BD840000200000000053
:10020400803C000808B5034B1BB103490348AFF316
:10021400008008BD0000000088000020803C000829
:1002240010B5284A136823F0070343F00203136050
:10023400244B1B6803F00703022BF9D1224A1368ED
:1002440043F480331360204B1B6813F4003FFAD04F
:100254001D4B5A6822F47C1242F4E8125A60DA6A9E
:1002640022F4803222F00F02DA621A6842F08072BD
:100274001A60154B1B6813F0007FFAD0124B5A68B2
:1002840022F0F0025A605A6822F4E06242F480627A
:100294005A605A6822F460525A605A6822F0030283
:1002A40042F002025A60084B5B6803F00C03082B0F
:1002B400F9D1064C204601F0D7FF204601F0E4FFB7
:1002C40010BD00BF002002400010024000A24A04FA
:1002D400044B0360044B4360044B8360044BC360D2
:1002E400704700BFA8000020BC000020D000002000
:1002F400E400002000B583B0334B9A6942F0010258
:100304009A619A6902F001020192019ADA6942F053
:100314008052DA61DB6903F080530093009B2B4B1E
:10032400D96821F4E0610904090C294A0A43DA6016
:10033400DA68C2F30222C2F10703042B28BF0423A4
:100344001946131D062B3CD9033A4FF0FF338B405B
:10035400DB4303F00F0393401B01DBB21B4A82F81B
:1003640023301C4A536823F0E06343F00073536066
:10037400FFF756FF00F050FC00F05AFD01F03EF884
:1003840000F05CFF01F01EFD01F07AFA01F0E8F9DB
:1003940001F0E4FA01F028FB01F098FC0E48FFF7A5
:1003A40097FF0E4800F08AFD02F06CFD02F058FF42
:1003B40002F0F8F902F07EFE0749094802F07EFBDC
:1003C400FAE70022C1E700BF0010024000ED00E0A0
:1003D4000003FA0500000140F8000020D0000020CE
:1003E400A0000020013807283DD8DFE800F02027CE
:1003F4001219040B2E35254B9B6813F0020F34D0D1
:1004040000207047214B9B6813F0020F2FD000206F
:1004140070471F4B9B6813F0040F2AD000207047CD
:100424001B4B9B6813F0040F25D000207047174B1B
:100434009B6813F0010F20D000207047134B9B687A
:1004440013F0010F1BD000207047104B9B6813F072
:10045400040F16D0002070470C4B9B6813F0040F58
:1004640011D0002070470020704701207047012000
:100474007047012070470120704701207047012018
:100484007047012070470120704700BF00100140F1
:100494000008014008B53C4B1B783BB903F180438D
:1004A40003F588339B6813F0010F10D0364B1B788B
:1004B400DBB2022B18D0344B1B78DBB2032B2CD0CD
:1004C400314B1B78DBB2042B42D0002008BD2E4BED
:1004D40002221A702D4B01221A802D4B00221A7011
:1004E400322001F04BFCE1E7294B1B78DBB2012BF6
:1004F40009D0274B00221A70642001F03FFC224BE4
:1005040003221A70D7E7214B188880B2FFF76AFFDD
:100514000028D0D11C4B1870D8E71D4B1B78DBB2D8
:10052400012BCDD1194B188880B2FFF75BFF10B9AE
:10053400154B1870CAE7144B04221A70144B00228E
:100544001A70642001F01AFC104B188880B2BDE7C1
:100554000F4B1B78DBB2012B03D00C4B188880B2F5
:10056400B4E70A4B188880B2FFF73CFF28B9002390
:10057400064A1380044A1370EFE7054B00221A70F1
:10058400642001F0FBFBE8E70F0100200C010020D0
:100594000901002010B5684B1B786BB903F1804347
:1005A40003F588339B6813F0020F1CD1624B0122C0
:1005B4001A70624B05221A805F4B1B78DBB2012B49
:1005C40034D05D4B1B78DBB2022B39D05A4B1B78ED
:1005D400DBB2032B4ED0584B1B78DBB2042B00F05C
:1005E4009180002010BD564B9B6813F0040F06D178
:1005F400514B01221A70514B03221A80DCE7514BF4
:100604009B6813F0040F06D14B4B01221A704B4B1D
:1006140007221A80D0E74B4B9B6813F0010FCBD114
:100624000123454A1370454A1380C5E7464B00220F
:100634001A70322001F0A2FB3F4B02221A70C0E76D
:10064400414B1B78DBB2012BC0D13C4B188880B2E4
:10065400FFF7C8FE10B9384B1870C3E700243A4BB3
:100664001C70322001F08AFB334B03221A70374B83
:100674001C70ABE7344B1B78DBB2012BABD12F4B97
:10068400188880B2FFF7AEFE78B1304B1B78042B8C
:1006940012D92A4B1B889BB2013B062B19D8DFE8E1
:1006A40003F02D18151825182900234B00221A7061
:1006B400224B188880B295E70133244A1370224BE9
:1006C40000221A70322001F059FB84E71B4B0422EC
:1006D4001A80194B04221A701B4B00221A70322004
:1006E40001F04CFB154B188880B27BE7134B0622B4
:1006F4001A80EEE7114B08221A80EAE70F4B022218
:100704001A80E6E7104B1B78DBB2012B01D00020E6
:1007140068E70A4B188880B2FFF764FE20B9074BDC
:100724001880054B18705DE70024074B1C703220BD
:1007340001F024FB204655E70E0100200A010020A9
:1007440000080140001001400901002008010020B8
:10075400044B9B6813F0010F01D000207047012067
:10076400704700BF00100140014B01221A7070470E
:10077400090100204FF4C86300FB03F3034880FB26
:1007840003201844C0F34F10704700BF898888883D
:100794004288054B93FBF2F35A08013A03494A8015
:1007A400013BCB80704700BF40420F001001002086
:1007B400064AD188642301FB0333C18893FBF1F318
:1007C400590801391180013B9380704710010020C2
:1007D40038B505460C46FFF7DBFF2846FFF7E8FF70
:1007E400043405EB4404E388024A5381EB881B017B
:1007F400138138BD1001002008B50F4B4FF48072EF
:100804005A614FF400725A61A3F500634FF4806299
:100814005A610A4B1B7813F0010F07D0084B4FF4B1
:1008240000621A61022001F0E9F908BD044B4FF49B
:1008340000625A61F6E700BF001001403001002059
:100844000008014008B5024801F014F908BD00BFD2
:1008540010010020064B1A786FF300021A701A7800
:1008640042F002021A701A7842F004021A707047B9
:100874003001002010B50F4C23786FF3410323702F
:10088400FFF796FF0C4B4FF480625A61237813F004
:10089400010F0AD0084B4FF400621A61022001F0E4
:1008A400ADF9064801F030F910BD034B4FF4006276
:1008B4005A61F3E7300100200008014010010020D4
:1008C40008B50A4A13786FF382031370FFF760FFC9
:1008D400074B4FF480725A614FF400725A61022040
:1008E40001F08CF9034801F041F908BD3001002002
:1008F400001001401001002008B501F01BF901F0BF
:100904004FF908BD044B4FF480621A6103F500638C
:100914004FF480721A6170470008014008B5002343
:1009240008E01A1D31F812C001EB4202A2F806C019
:100934000133DBB20A789A42F3D800224A7002F0FB
:1009440057F808BD70B54D780B789D424DD20646D8
:100954000C4629462046FFF73BFFFFF74DFF02E018
:10096400FFF7F6FE30B32B1D04EB4303DB8843B3E0
:100974001F4B1B7813F0040FF2D01D4B1B7813F0A0
:10098400020FEDD01B4B5A89013A2B1D04EB430394
:10099400DA80174B1A786FF382021A701A786FF3A1
:1009A40041021A70FFF74EFF2A462146304602F0F4
:1009B4001FF8D5E7FFF7A6FF20786378C01A40B286
:1009C40012E0637801336370094B1B7813F0040F52
:1009D40004D1074B1B7813F0020FF5D0FFF792FFF9
:1009E40020786378C01A40B270BD4FF0FF30FBE747
:1009F400300100201001002000B583B00023ADF8C1
:100A04000630FFF7C7FDADF806000028F9D0BDF8A1
:100A140006309BB2042B0FD9073B9BB2012B16D88F
:100A24000C4A13786FF3000313700A4B187800F024
:100A3400010003B05DF804FB032B02D24FF0FF303A
:100A4400F7E7044A137843F001031370EDE74FF01E
:100A5400FF30EEE73001002038B501F0B1F8194B52
:100A64004FF448625A806422DA80174B1B7813F0E3
:100A7400020F00D138BD144C237843F001032370D6
:100A8400104D2846FFF784FE23786FF3410323704B
:100A94002846FFF7EFFE0C4B1B7813F0010FFAD139
:100AA4000A4B9B6813F4805FFAD101F043F8084BBA
:100AB4004FF480621A61044A137843F002031370FE
:100AC400D8E700BF1C0100203001002000100140C5
:100AD4000008014010B501F073F81C4B4FF4486254
:100AE4005A806422DA80FFF733FE012809D0FFF729
:100AF40051FD0028F7D00CE0154B1B7813F0020FC2
:100B040008D1FFF747FD0028F6D00128F4D00228C9
:100B1400F2D010BD0D4C2046FFF73AFE0C4A137874
:100B24006FF3410313702046FFF7A4FEFFF710FE96
:100B34000128FBD000F0FEFF064B4FF480621A61DF
:100B4400034A137843F002031370DAE71C01002010
:100B5400300100200008014008B500F0EBFF034A13
:100B6400137843F00203137008BD00BF3001002066
:100B740008B501F015F8064A137843F0040313701E
:100B8400044B5B8913B1013B024A538108BD00BF8A
:100B940030010020100100200D4B4FF480621A61D7
:100BA4000C4A13786FF300031370137813F0010FDA
:100BB40008D0074B4FF400621A61054B4FF4806272
:100BC4005A617047024B4FF400625A61F5E700BF67
:100BD40000080140300100200D4B4FF480621A617F
:100BE4000C4B1A7842F001021A701B7813F0010FB3
:100BF40008D0074B4FF400621A61054B4FF4806232
:100C04005A617047024B4FF400625A61F5E700BF26
:100C140000080140300100202DE9F04F8DB0002480
:100C24000A940B9405940694079408940994754BBC
:100C34009A6942F020029A619A6902F020020492B1
:100C4400049A9A6942F010029A619A6902F01002B9
:100C54000392039A9A6942F004029A619A6902F033
:100C640004020292029A9A6942F008029A619B690C
:100C740003F008030193019B0723634A5361634E06
:100C84004FF440737361DFF888B14FF40C43CBF831
:100C9400143040F2077705974FF0040ACDF818A0F6
:100CA40005A9304601F038F940F2033305934FF0BB
:100CB4000809CDF81890099405A9584601F02CF9B3
:100CC40040F204450595CDF818A005A9584601F051
:100CD40023F90597012706974FF00208CDF81C80E9
:100CE400089405A9484801F017F94A4B059306975B
:100CF400CDF81C80089405A9304601F00DF9464B47
:100D040005930697CDF81C80089405A9584601F070
:100D140003F942494B6923F00F034FF00F0B9BFA81
:100D2400ABF2B2FA82F208FA02F843EA08034B6122
:100D34008B6823F470634FF4706292FAA2F2B2FAF1
:100D440082F2032000FA02F213438B604FF48053C3
:100D54000A938DF82C708DF82D408DF82E700AA80A
:100D640001F098FACDF828A08DF82C708DF82D405C
:100D74008DF82E700AA801F08DFAF36823F482230B
:100D84004FF4822292FAA2F2F360254AD36823F048
:100D940004039AFAAAFAD3607068224B93FAA3F177
:100DA400B1FA81F189000BFA01F120EA010193FA09
:100DB400A3F3B3FA83F39B0009FA03F30B437360C1
:100DC400136895FAA5F1B1FA81F189000BFA01FBD8
:100DD40023EA0B0395FAA5F5B5FA85F5AD0009FAF2
:100DE40005F51D4315601049CB68104B83F8084383
:100DF4004FF480721A60C96883F828435A600DB0B2
:100E0400BDE8F08F00100240000C014000100140CA
:100E140000080140030003048C008C04000001401E
:100E2400001401401000100400ED00E000E100E0B7
:100E340082B0154B5A6942F001025A615B6903F0B2
:100E440001030193019B114BDA68C2F30222C2F140
:100E54000703042B28BF04231946131D062B11D99D
:100E6400033A4FF0FF338B40DB4303F0030393401B
:100E74001B01DBB2064A82F80F334FF400431360C0
:100E840002B070470022ECE70010024000ED00E0E1
:100E940000E100E008B5002304E0C15C064AD15437
:100EA4000133DBB2132BF8D91423034A0121A02008
:100EB40000F026FA08BD00BF4801002010B5044622
:100EC4001423074A0121A02000F042FA002304E081
:100ED400034AD25CE2540133DBB2132BF8D910BDC0
:100EE4003401002082B000238DF8073001238DF8EF
:100EF4000630134B9B68DB4303F00203002B0CBF4B
:100F0400012300238DF8063005D19DF8073043F006
:100F140002038DF807300A4B9B68DB4313F001038F
:100F240083F001038DF8063005D19DF8073043F0B6
:100F340001038DF807309DF8070002B0704700BF29
:100F44000008014010B50446FFF7CCFF6070784BF1
:100F54001B78042B00F2EA80DFE813F005002D0073
:100F64006200A800D700734B1B78002B40F0DE8092
:100F74002378984200F0DA80012812D0022815D094
:100F84000023A370E3706A4B04221A706A4B002298
:100F94001A702070674B01221A70052000F0FAFEC7
:100FA400C4E00123624A1370E370EFE70123604A4F
:100FB4001370A370EAE75F4B1B78002B40F0B680F8
:100FC4002378984212D05C4B00221A7020700328B8
:100FD40022D00023A370E370554B04221A70554BA2
:100FE40001221A70052000F0D5FE9FE0524A1378C2
:100FF4000133DBB213700F2B07D900231370A370D6
:10100400E3704B4B04221A7090E04A4B01221A7091
:10101400052000F0BFFE89E0454B02221A70DEE78E
:10102400444B1B78002B40F08180237898420FD0EA
:10103400022821D001282CD00023A370E3703C4B5C
:1010440004221A70637823703B4B00221A706DE0FF
:10105400394B1B780F2B08D90023374A1370A37020
:10106400E370334B04221A7060E0324B01221A7091
:10107400052000F08FFE59E0E378012BE2D12C4BE0
:1010840003221A702B4B01221A70052000F082FEF5
:10109400D8E7A378012BD5D1254B03221A70254B11
:1010A40001221A70052000F075FECBE7214B1B7856
:1010B400002B3BD1237898420ED0E378012B1FD02C
:1010C400A378012B1FD00023A370E37020701A4A69
:1010D4001370174A137029E0174B1B780F2B08D98C
:1010E4000023154A1370A370E370114B04221A7085
:1010F4001CE0104B01221A70052000F04BFE15E095
:10110400FF232371DFE72371DDE70A4B1B786BB9FB
:101114002378984204D010B9054B00221A7020702D
:10112400044B01221A70052000F034FE207910BD12
:101134005E0100205D0100205C01002008B5FFF77E
:1011440001FF00B1012008BD014B00221A70704755
:101154005D01002070B582B005460C46354A13681F
:1011640023F400631360642000F020FE324B00225D
:101174001A70304B9B6913F0020F07D02E4B1B786B
:10118400DBB2012BF5D1002002B070BD294E3368CB
:1011940043F480633360642000F008FE264B002291
:1011A4001A70336843F480733360224B5B6913F025
:1011B400010F06D1204B1B78DBB2012BF5D10020A7
:1011C400E2E71C4E7369642000F0F0FD1A4B002224
:1011D4001A70336923F0FF031D433561154B5B69B6
:1011E40013F0020F06D1144B1B78DBB2012BF5D19F
:1011F4000020C9E70F4A53690193019B9369019346
:10120400019B136923F0FF0343EA14231361094B81
:101214005B6913F0800FFAD0E3B206490A6922F041
:10122400FF0213430B61034B5B6913F0800FFAD089
:101234000120A9E7005400405F01002030B58FB0C1
:101244000024089409940A940B940C940D94039428
:101254000494059406940794244DAB6943F0080361
:10126400AB61AB6903F008030293029B204B039329
:1012740009230493032305930423069303A91D4818
:1012840000F04AFE1C4A536843F0E06343F0020353
:101294005360EB6943F40013EB61EB6903F400134F
:1012A4000193019BA5F5DE35EB6823F00103EB60A8
:1012B4002B6823F040032B602B6823F080032B6002
:1012C40008940E4B09930A940B944FF480630C9387
:1012D4004FF480430D9308A9284600F0A9FEEB685B
:1012E40023F0FE03EB600FB030BD00BF00100240DE
:1012F40003000304000C014000000140801A0600B2
:1013040038B515461C46FFF725FFE8B14FF0000C31
:10131400604612E015F80C100C4A136923F0FF0321
:10132400194311610949496911F0800FFAD001305C
:10133400C0B20CF1010C1FFA8CFCA445EAD3034A99
:10134400136843F40073136038BD00BF00540040B9
:1013540070B582B0064615461C46FFF7FBFE002812
:1013640042D0224A136843F4807313601F4B5B69B5
:1013740013F0010FFAD01D4B5A6946F001061A69A1
:1013840022F0FF0216431E61184B5B6913F0020F33
:10139400FAD0164B5A690192019A9B690193019BF9
:1013A400002012E0114B1A6822F480621A601A6855
:1013B40042F400721A600D49496911F0400FFAD0E5
:1013C4000A4B1B692B54013080B2A0420BD2631E1E
:1013D4009842E7DA0549496911F0400FFAD0034B06
:1013E4001B692B54EFE7E0B202B070BD005400401B
:1013F400014B01221A7070475F01002030B593B091
:101404002822002108A801F0A3FF002503950495D4
:10141400059506950795374BDA6942F48042DA61FF
:10142400DA6902F480420292029A9A6942F008024E
:101434009A619B6903F008030193019B2E4B03936C
:10144400092304930323059303A92C4800F064FDA6
:101454002B4CA36D23F4804323F0100343F01003BB
:10146400A365A36D23F44053A365A36D23F0200368
:10147400A365A36D23F04003A365A36D43F080032C
:10148400A365A36D23F44073A365A36D23F44063A4
:10149400A36508954FF4827309930A950B950C95EF
:1014A4004FF400730D9308230E930F9510950A23A0
:1014B4001193144D08A9284600F056FFA36D23F09C
:1014C4000103A3654FF4003363604FF400236360AA
:1014D4006B6843F002036B60A36D43F00203A365E2
:1014E400A36D43F00803A3652B6843F040032B600E
:1014F40013B030BD00100240A000A004000C014055
:101504000000024000380040034B9B6813F0020FB8
:10151400FAD0014B187370470038004008B5204AD0
:10152400936D23F001039365D36D1B0C1B0443F0EF
:101534008403D3651B4B187800EB40118B00043BEC
:1015440019490B441949926D22F47F5222F02F025B
:101554005204520C102A10D0114A13665166032803
:101564000FD9104B00221A700D4A936D23F001031A
:1015740093650F4B04221A6108BD094A536611662C
:10158400EDE701F049FC0A4B02221A61044A936D0B
:1015940043F001039365034A137801331370EBE7B7
:1015A4000000024060010020D00100200C380040FF
:1015B400000C014008B5034B4FF480325A60FFF72A
:1015C400ADFF08BD000002406FF001030361C36872
:1015D40043F00103C360002913DB01F1604303F509
:1015E4006143102283F80023002907DB01F01F0266
:1015F400490901239340064A42F8213000234362FB
:10160400704701F00F02034B134410221A76EBE7E4
:1016140000E100E0FCEC00E038B5054600240CE0F5
:10162400134B03EB041300211972114B03EB021348
:10163400DB68501C98470134A4B2022C17D8224608
:101644000B4B03EB04131B7A012BF4D12301084940
:10165400CB58AB42EFD801EB04135B7A002BDFD0FD
:10166400200101EB04135B682B440B50DDE738BD0C
:101674007C010020014B1868704700BF68010020FE
:1016840010B586B00023019302930393049305934A
:1016940003F1804303F50433DA6942F02002DA618E
:1016A400DB6903F020030093009B4723ADF804306B
:1016B400FF230393054C01A9204600F061FF236832
:1016C40023F08003236006B010BD00BF0014004067
:1016D40030B587B0002501950295039504950595CD
:1016E400164BDA6942F01002DA61DB6903F0100389
:1016F4000093009B4723ADF8043040F2E733039393
:101704000F4C01A9204600F03BFF236823F080031F
:1017140023606FF001032361E36843F00103E36096
:101724006562084B402283F836234FF480025A60E6
:10173400236843F00103236007B030BD001002406A
:101744000010004000E100E008B5FFF751FE08BDBD
:1017540008B5FFF7F9FC08BD08B5FFF705F808BDA3
:1017640070B59AB00024159416941794189419948B
:10177400202221460DA801F0EBFD0794089409945A
:101784000A940B940C940294039404940594069480
:10179400354EB36943F40063B361B36903F4006382
:1017A4000193019B4723ADF8543040F2E73317937C
:1017B400FF2319932D4D15A9284600F0E1FE2B684F
:1017C40023F080032B60AB6823F4804323F00703EA
:1017D400AB60274AD2F8183C43F00803C2F8183C1F
:1017E40070230D930E940F9440F2F31310931194FD
:1017F4001294139414940DAA0121284600F000FFBA
:101804001C4A136823F0040313606B6823F070030D
:1018140043F040036B60AB6843F08003AB60079414
:10182400089409948DF82840ADF82A404FF40053E9
:101834000B930C9407A9284600F000FFB36943F00A
:101844000403B361B36903F004030093009B0A4BE0
:1018540002930923039302230493059402A90748DE
:1018640000F05AFB1AB070BD00100240002C014079
:1018740000200140182C014001000104000801402F
:1018840070B594B000240F9410941194129413948E
:101894002022214607A801F05BFD029403940494DE
:1018A40005940694294EF36943F00203F361F36946
:1018B40003F002030193019B4723ADF83C3040F24F
:1018C400E7331193224D0FA9284600F059FE2B68E7
:1018D40023F080032B604FF08042D2F8183443F495
:1018E4000063C2F81834702307930894099440F2F3
:1018F400F3130A930B9407AA1021284600F080FEE4
:10190400144A136823F4806313606B6823F0700334
:1019140043F050036B60AB6843F08003AB60B36982
:1019240043F00403B361B36903F004030093009B21
:1019340048F280030293092303930223049305943A
:1019440002A9054800F0E8FA14B070BD0010024086
:1019540000040040180400400008014010B586B09F
:1019640000230193029303930493059303F18043AB
:1019740003F50433DA6942F00402DA61DB6903F047
:1019840004030093009B40F23F630393154C01A9A9
:10199400204600F0F5FD236823F080032360A3684C
:1019A40023F07003A360A36823F4804323F00703A8
:1019B40043F00703A360E36823F04003E360E368B4
:1019C40023F48043E360636823F070036360A368D7
:1019D40023F08003A3601E212046FFF7F5FD06B027
:1019E40010BD00BF0008004010B586B0002301936D
:1019F400029303930493059303F1804303F50433A3
:101A0400DA6942F00802DA61DB6903F00803009343
:101A1400009BC7230393164C01A9204600F0B0FD98
:101A2400236823F080032360A36823F0700343F04A
:101A34001003A360A36823F4804323F0070343F057
:101A44000703A360E36823F04003E360E36823F43F
:101A54008043E360636823F070036360A36823F04A
:101A64008003A36032212046FFF7AEFD06B010BD0F
:101A7400000C004010B4214B1A6822F001021A60D5
:101A84000289DA62002159621A6842F001021A607E
:101A9400A3F580631A6822F001021A6059621A6879
:101AA40042F001021A60164A136823F0010313601E
:101AB400144B1C6824F001041C6051625962818833
:101AC400D162C188D9620188916341885963116ADE
:101AD40041F010011162196A41F001011962596C57
:101AE40041F400415964116841F0010111601A6820
:101AF40042F001021A6010BC704700BF000C0040A5
:101B040000040040002C0140094B1A6822F0010235
:101B14001A6000225A628288DA6202889A631A6A18
:101B240042F010021A621A6842F001021A60704709
:101B340000040040044B1A6822F001021A601A6A79
:101B440022F010021A6270470004004008B5064BE8
:101B54001B6913F0010F05D0034B6FF001021A61EA
:101B6400FEF7FAFF08BD00BF000C00400B4B1A68DB
:101B740022F001021A6000225A62C288DA624288A4
:101B84005A631A6A42F001021A625A6C42F4004221
:101B94005A641A6842F001021A607047002C01402E
:101BA400064B1A6822F001021A605A6C22F40042B1
:101BB4005A641A6A22F001021A627047002C01402A
:101BC400054A136823F001031360A2F580621368C9
:101BD40023F0010313607047000C004008B5064B66
:101BE4001B6913F0010F05D0034B6FF001021A615A
:101BF400FEF7BEFF08BD00BF000800400A4BD862D4
:101C04006FF001021A6100225A621A6842F001025E
:101C14001A60054B1B6913F0010FFAD0024A1368CE
:101C240023F00103136070470014004008B5094B0A
:101C34001B6913F0010F0BD0064B6FF001021A6100
:101C4400054B186801301860044B1B6803B19847B2
:101C540008BD00BF0010004068010020640100209E
:101C640070B506464FF0000C09E0164B03EB0C135D
:101C740000221A7221E00CF1010C1FFA8CFCBCF159
:101C8400020F1CD865460F4C04EB0C1EDEF80C400A
:101C9400002CF0D1CEF804608EF80910CEF80C2098
:101CA400002BE2D0084B1B6898470644054A2B01D9
:101CB40002EB0511D65001230B72681C00E00020D2
:101CC40070BD00BF7C0100206C01002008B5FFF747
:101CD400D7FCFFF7FDFC0F4B0F4A1A600F4B104A5D
:101CE4001A6000230F4A19463220FFF7B9FF0E4B42
:101CF400186000230D4A19460520FFF7B1FF0C4B6D
:101D0400186000230B4A19466420FFF7A9FF0A4B09
:101D1400186008BD640100201D1600086C01002035
:101D2400791600085D170008700100205517000897
:101D3400740100204D1700087801002020B1431ED3
:101D4400024A02EB03135960704700BF7C01002074
:101D540078B110B50446074B1B689847631E064AC2
:101D6400190102EB03135C682044505001221A72DB
:101D740010BD70476C0100207C01002010B50146A5
:101D8400034C2068FFF7DAFF2068FFF7E1FF10BD7E
:101D94007001002010B50146034C2068FFF7CEFF08
:101DA4002068FFF7D5FF10BD7401002010B501466F
:101DB400034C2068FFF7C2FF2068FFF7C9FF10BD7E
:101DC4007801002030B58FB000240794089409945A
:101DD4000A940B940C940D94029403940494059423
:101DE4000694274BDA6942F48022DA61DA6902F454
:101DF40080220192019A9A6942F010029A619B69C9
:101E040003F010030093009B1E4B029309230393DA
:101E1400032304931C4D02A9284600F07DF81B4BB4
:101E240002930423039302A9284600F075F8184A84
:101E3400536823F0E06323F0300343F0E06343F09E
:101E4400100353604FF4E1330793089409940A9400
:101E54000C230B930C940D940E4C07A9204600F010
:101E640007FC236923F490432361636923F02A0365
:101E74006361E36843F40053E3600FB030BD00BF17
:101E8400001002400400040400100140080008048B
:101E94000000014000480040FEE7FEE7FEE7FEE7E1
:101EA400FEE77047704770477047000008B5064B5F
:101EB4005B6913F0040F00D108BD034B04225A617F
:101EC400FEF78AFEF8E700BF0004014008B5094B9D
:101ED4001B6813F4003F09D1064B1B6813F4002F51
:101EE40003D0044B4FF400225A6008BDFFF762FB95
:101EF400FBE700BF0000024008B5064B5B6913F422
:101F0400805F00D108BD034B4FF480525A61FEF745
:101F140043FEF7E7000401400B68C3F30F2C9CFA5F
:101F2400ACF2B2FA82F276E0A2F108044FF00113A7
:101F3400A34043F080634C68082C2CD01D0E93FA08
:101F4400A3F4B4FA84F4A4004FF00F0E0EFA04F4D0
:101F5400465926EA040493FAA3FEBEFA8EFE4FEA1B
:101F64008E0E4E6806FA0EFE44EA0E0444514C6886
:101F7400012C1ED0092C1CD001323CFA02F347D0AC
:101F84000123934013EA0C0FF6D0072ACCD840F271
:101F940001139340CFE70D69C6681C0A26EA13268D
:101FA40094FAA4F4B4FA84F405FA04F43443C4604F
:101FB400C4E74FEA136E50F80E4093FAA3F5B5FA4E
:101FC40085F5AD00032606FA05F524EA050493FA1F
:101FD400A3F5B5FA85F5AD008E6806FA05F5254337
:101FE40040F80E50CC6893FAA3F6B6FA86F6B6001B
:101FF400042707FA06F625EA060593FAA3F3B3FACB
:1020040083F39B0004FA03F32B4340F80E30B3E749
:102014000020F0BD01323CFA02F306D001239340C4
:1020240013EA0C0FF6D0F0B5AFE7002070470000BC
:10203400F0B585B004460D46036823F00103036040
:10204400684600F001F9029A6B68AE683648A0FB56
:10205400021C4FEA9C41606820F03F0040EA9C402B
:102064006060206A20F03F00304FBB4237D8013116
:10207400014321622D498B424DD9002E39D103EB06
:102084004303B2FBF3F2C2F30B03002B3DD042F443
:10209400004246EA0203E26922F44F4222F0FF02C0
:1020A4001A43E261EA686969A36823F4034323F0ED
:1020B400FF030A431343A3602B68226822F01A0229
:1020C40013432360236843F0010323602B692268D0
:1020D40022F4806213432360002005B0F0BD4FF466
:1020E400967707FB01F1124FA7FB017189090131B2
:1020F400BEE703EB830303EB8303B2FBF3F2C2F308
:102104000B032BB142F40042C3E748F20102C0E7DB
:1021140048F20102BDE75B00B2FBF3F340F6FC7248
:102124001342B8D10423B6E783DE1B43A086010023
:10213400D34D6210034B5B68C3F30313024AD35CB1
:10214400D840704700100240983C0008034B5B687D
:10215400C3F30223024AD35CD84070470010024004
:10216400A83C0008034B5B68C3F3C223024AD35C58
:10217400D840704700100240A83C0008084AD36ABF
:10218400C3F30323074800FB03F303F5740303F5C8
:102194001053D06AC0F303100130B3FBF0F0704762
:1021A4000010024000127A0008B51C4A536803F478
:1021B4008033D26A120102F480121343B3F5803FD4
:1021C40012D0B3F5881F18D0154B144A526802F484
:1021D4007012B2F5501F1AD0104A5068C0F38340F1
:1021E400023003FB00F008BD0C4BDB6A03F00F0365
:1021F40001330C48B0FBF3F3E7E7FFF7BFFF074BEE
:10220400DB6A03F00F030133B0FBF3F3DDE703EB09
:10221400430003EB80004008E5E700BF00100240E4
:1022240000093D0000127A0008B5054B5B6803F015
:102234000C03082B01D0034808BDFFF7B5FFFBE7EB
:102244000010024000127A0010B50446FFF7ECFFBC
:102254002060FFF76FFF6060FFF778FFA0606068A1
:10226400FFF780FFE06010BD064BA3FB00239B0932
:10227400013B4FF0E0225361002393610523136176
:10228400704700BFD34D6210014B1860704700BF08
:102294000000002010B403460079002853D01A68C7
:1022A400002A5DD05879012818D0022821D058B1CD
:1022B40001209A79002A51D0022A2FD0032A38D03B
:1022C400012A20D0012049E026494C6824EA020270
:1022D4004A601A680C6822430A60EAE721490868E0
:1022E40020EA02020A601A68486802434A60002031
:1022F400DFE71C49086802430A601A684868024319
:102304004A600020D5E71C68164AD16821EA040116
:10231400D1601B6891680B4393601FE01C68114AED
:10232400916821EA040191601B68D1680B43D36072
:1023340014E019680B4A9468214391601B68D168C2
:102344000B43D3600AE0074A11681C6821EA0401C0
:1023540011601968536823EA0103536010BC704785
:102364000020FBE7000401400246036813F0400F1D
:102374002DD110B4006820F47F4020F0BF000B681A
:102384004C6823438C682343CC6823430C69234360
:102394004C6923438C692343CC6923430C6A23434C
:1023A40003431360536823F00403C88A0343536050
:1023B4000B6AB3F5005F06D00020D36923F40063F1
:1023C400D36110BC70478B8C13610020F5E70120AA
:1023D400D36923F40063D3617047000030B4036A07
:1023E40023F001030362036A4468826922F07302E2
:1023F4000D682A4323F002030D692B4323F00103E4
:102404004D682B430F4DA84207D044608261CA68CF
:1024140042630362002030BC704723F008034D6917
:1024240043EA850323F004038D6843EA850324F417
:1024340080748D692C4324F40074CD6944EA450406
:10244400E3E700BF002C014030B4036A23F010031B
:102454000362036A4468826922F4E6420D6842EA30
:10246400052223F020030D6943EA051323F010032A
:102474004D6843EA0513104DA84207D044608261B9
:10248400CA6882630362002030BC704723F0800373
:102494004D6943EA851323F040038D6843EA8513AD
:1024A40024F480648D6944EA850424F40064CD69CD
:1024B40044EAC504E2E700BF002C014030B4036ADB
:1024C40023F480730362036A4468C26922F07302CE
:1024D4000D682A4323F400730D6943EA052323F4AA
:1024E40080734D6843EA05230F4DA84207D044602A
:1024F400C261CA68C2630362002030BC704723F41F
:1025040000634D6943EA852323F480638D6843EABD
:10251400852324F480548D6944EA051424F400547A
:10252400CD6944EA4514E2E7002C014030B4036A63
:1025340023F480530362036A4468C26922F4E642C6
:102544000D6842EA052223F400530D6943EA05337A
:1025540023F480534D6843EA0533084DA84207D05D
:102564004460C261CA6802640362002030BC7047E0
:1025740024F480448D6944EA8514F1E7002C014079
:1025840003681E4A90420ED0B0F1804F0BD0A2F5E2
:102594009432904207D002F58062904203D002F553
:1025A4008062904203D123F070034A681343134AB4
:1025B40090420ED0B0F1804F0BD0A2F594329042ED
:1025C40007D002F58062904203D002F58062904207
:1025D40003D123F44073CA68134303608B68C36256
:1025E4000B888362054B984205D0436943F001038D
:1025F4004361002070470B690363F6E7002C014038
:1026040008B50B461146B3F5807F14D008D8012BCA
:102614000ED0102B02D1FFF717FF08E0012006E0CF
:10262400B3F5805F02D1FFF781FF00E0012008BD10
:10263400FFF7D4FEFBE7FFF741FFF8E70B7B8A685F
:10264400134323F480634A68134323F400630A6842
:10265400134323F48053CA89134323F400530A69B0
:10266400134323F480434A691343436400207047AF
:10267400C36813F4005F01D00120704730B585B002
:1026840004460D46C36823F4B05323F00C034A6890
:10269400C9680A4329690A431343C360AB680269E2
:1026A40022F44052134303616B69426922F440727D
:1026B400134343616846FFF7C7FD214B9C420DD08D
:1026C400204B9C4210D0204B9C420FD01F4B9C426D
:1026D4000ED01F4B9C420DD001202FE0039B63B30F
:1026E4002A684AB9012029E0029BF8E7029BF6E731
:1026F400029BF4E7029BF2E703EB830303EB830300
:102704009200B3FBF2F31348A0FB032149090A0129
:1027140092B2642505FB11331B013233A0FB031372
:10272400C3F34F1303F0F0010A4492B203F00F0312
:1027340013449BB2A360002000E0012005B030BD2B
:10274400003801400044004000480040004C004074
:10275400005000401F85EB517047000010B5034640
:102764000C4A0D490D48006840B10C480068034408
:10277400521A934206D8094A136010BD0748084C00
:102784000460F2E700F0BAFD0C2303604FF0FF3061
:10279400F3E700BF0000012000100000AC0100209E
:1027A400F003002000B583B00023ADF806300BE041
:1027B40000F02AFDFDF76EFEADF806000028F9D101
:1027C40042F21070FFF71AFA094B1B78632B0AD8F0
:1027D400FDF760FEADF806000028E9D1044A13783D
:1027E40001331370ECE7FEF735F803B05DF804FB32
:1027F400B0010020F8B505460C468B881BB91E2392
:102804000B7100234B71E3881BB96423A37100236C
:10281400E371FFF7D5F9A088FDF7ACFF608020468F
:10282400FEF74EF82046FEF725F8B4F9040000F050
:1028340001FC2846FEF782FC01282FD0FDF7AAFEF2
:102844000028F6D00528F4D1B4F9060000F0C6FB40
:102854002846FEF773FC012849D0FDF79BFE0028AB
:10286400F6D00528F4D1FEF747F8FEF74BF85F4B96
:102874001A7842F002021A701A7842F004021A70AE
:102884000023022B00F2AA805F1CFFB21E46043311
:1028940034F81310384600F0EBFB60E095F904308F
:1028A4009BB203EB43039BB2A2881344A38000238F
:1028B4002B71A388962B12D90C23237100236371E7
:1028C400A088FDF757FF60802046FDF7F9FF2046FA
:1028D400FDF7D0FFB4F9040000F0ACFBAEE70B2B1E
:1028E400EED86FF06903237100236371E8E795F96B
:1028F40004309BB203EB83039BB2E2881344E3806E
:1029040000232B71E388B3F5967F0ED91923A371A5
:102914000023E3712046FDF7D3FF2046FDF7AAFF0D
:10292400B4F9060000F05AFB97E7182BF2D82C23D1
:10293400A3710123E371EDE7FA2B07D9331D0122BB
:1029440004F8132004EB430300225A70331D34F8B7
:102954001310384600F08CFBFDF71CFEE8B928463E
:10296400FEF7ECFB0128F7D195F904309BB2321D38
:1029740034F812100B4424F8123000232B7134F86D
:102984001230002BD8D113466FF0050204F813203F
:1029940004EB430300225A70D8E7321D34F81210B6
:1029A40004EB4202D180062803D00528D7D13B4648
:1029B40067E72770002363700AE03B1D002204F8D8
:1029C400132004EB43035A709A71DA710137FFB292
:1029D400022FF2D92046FEF75DFAF8BD03232370D7
:1029E400002363702046FEF755FAF6E73001002015
:1029F40008B502F1040C01EB4C0E0132D3B231F9EB
:102A04001C20BEF9061000F0AFFA08BD30B583B043
:102A140004460D460023ADF80630274B187800F025
:102A2400D9FB0EE0244B1B7813B9234B04221A70F4
:102A3400214B187800F0CEFBFDF7ACFDADF8060095
:102A4400A0B92046FEF77AFB0128F5D121791A4A6C
:102A540013780B44DBB21370002323711378DBB2B9
:102A6400042BDFD9134601221A70E1E7BDF80630C2
:102A74009BB2052B06D0062B0FD00F4B187800F015
:102A8400A9FBDEE70C4B1B7803F18043013B55F8AF
:102A940023102046FFF7AEFEEFE7074C207823789B
:102AA40003F18043013B002255F82310FFF7A0FFF8
:102AB4002078C0B203B030BD1C00002030B583B014
:102AC40004460D460023ADF80630FDF763FDADF86E
:102AD4000600C8B1BDF806309BB2023B062B13D8E2
:102AE400DFE803F0042A2A141B404000244B187822
:102AF4001B7803F18043013B55F82310FDF722FFB7
:102B0400FDF726FE0028FBD103B030BD2946204640
:102B1400FFF77CFF1A4B1870F6E7194B1B78002B54
:102B2400F2D0174B18781B7803F18043013B55F81A
:102B34002310FDF7F3FEE7E700F0EAFAFDF78CFF58
:102B44000F4B1B785BB10E4B18781B7803F1804355
:102B5400013B002255F82310FFF74AFFD4E700F0A9
:102B6400A9FAD1E700F00AFBFDF746FFB0F1FF3FF9
:102B7400FAD000F0E9FAFDF7ADFF00F09BFAC3E7E5
:102B84001C000020014B188059807047C8010020A8
:102B9400832817D81F2915D8124B1B7913B1B2FA01
:102BA40082F25209012A0ED0CB0803EB431300EB47
:102BB400830001F0070101238B400B4A115C21EAD9
:102BC400030111547047CB0803EB431300EB83005C
:102BD40001F0070101238B40034A115C194311548E
:102BE400704700BFC8010020D00100202DE9F84340
:102BF400224B1B88832B3DD881460E4690461F4BA3
:102C04005B881F2B38D8002520E01C4B1888598876
:102C140029442044B8FA88F2520989B280B2FFF7F5
:102C2400B7FF01343378A3420FD907FA04F313F43E
:102C3400004FEAD0114B1888598829442044424651
:102C440089B280B2FFF7A4FFEBE701357278AA429C
:102C540008D97168A9F1200302FB035331F81370FA
:102C64000024DFE73378054A11880B441380484673
:102C7400BDE8F8830020FBE70020F9E7C801002045
:102C840070B504460E46154600E00134207838B18C
:102C94002A463146FFF7AAFF034620788342F4D040
:102CA40070BD000008B54FF40471024800F0FCFA4E
:102CB40008BD00BFD001002070B501210020FFF73E
:102CC40061FF0F4D0F4B2C4693E8070003C422709D
:102CD4000D4E012231462846FFF7D2FF1121002074
:102CE400FFF750FF094A2B4607CA03C3227001228B
:102CF40031462846FFF7C4FFFFF7D4FF70BD00BF7D
:102D0400B401002034550008040000204055000898
:102D140070B501210020FFF735FF0F4D0F4B2C46F6
:102D240093E8070003C422700D4E01223146284661
:102D3400FFF7A6FF11210020FFF724FF094A2B46C5
:102D440007CA03C32270012231462846FFF798FFC1
:102D5400FFF7A8FF70BD00BFB40100204C55000868
:102D6400040000205855000870B501210020FFF729
:102D740009FF0F4D0F4B2C4693E8070003C4227044
:102D84000D4E012231462846FFF77AFF112100201B
:102D9400FFF7F8FE094A2B4607CA03C32270012233
:102DA40031462846FFF76CFFFFF77CFF70BD00BF7C
:102DB400B401002064550008040000207055000888
:102DC40070B501210020FFF7DDFE0F4D0F4B2C469F
:102DD40093E8070003C422700D4E012231462846B1
:102DE400FFF74EFF11210020FFF7CCFE094A2B46C6
:102DF40007CA03C32270012231462846FFF740FF69
:102E0400FFF750FF70BD00BFB40100207C550008DF
:102E1400040000208855000808B5074B04225A61B5
:102E24005038C0B200F036FA002000F033FA102017
:102E340000F030FA08BD00BF000C014008B50C4B8F
:102E44001B7953B1012806D0FF214FF404720948BD
:102E540000F07EFA08BD0021F7E730B900214FF4F5
:102E64000472044800F074FAF4E7FF21F7E700BFA6
:102E7400C8010020D001002008B50020FFF7DEFFC4
:102E840008BD000070B5324C0125656140F6B830CC
:102E9400FEF7B4FE256140F6B830FEF7AFFE042617
:102EA4006661AE2000F0F6F9812000F0F3F9FF200E
:102EB40000F0F0F9A62000F0EDF9A42000F0EAF902
:102EC400202000F0E7F9022000F0E4F9B02000F03F
:102ED400E1F9002000F0DEF9102000F0DBF94020D9
:102EE40000F0D8F9A12000F0D5F9A82000F0D2F91B
:102EF4001F2000F0CFF9C82000F0CCF9D32000F057
:102F0400C9F9002000F0C6F9DA2000F0C3F9122054
:102F140000F0C0F9D52000F0BDF9F02000F0BAF9B6
:102F2400DB2000F0B7F9202000F0B4F9AF2000F066
:102F3400B1F941F28830FEF761FEFFF79DFFFFF71C
:102F4400B1FE044B00221A805A805D71266170BD67
:102F5400000C0140C801002008B501210020FFF742
:102F640011FEFFF789FF08BD2DE9F04182B08046CC
:102F74000E4617461D46FFF7EFFF01210020FFF71D
:102F840001FE114C4346114A1421204600F0E8F991
:102F940001220F492046FFF773FE0E210020FFF7A0
:102FA400F1FD019700962B460A4A1421204600F0B1
:102FB400D7F9012208492046FFF762FEFFF772FEA7
:102FC40002B0BDE8F08100BFB401002094550008B0
:102FD40014000020A05500080400002070B582B041
:102FE400104B83FB0023C417C4EB6314E6B26423C1
:102FF40003FB1400C4B206210020FFF7C3FDFFF752
:103004003BFF094D00943346084A1421284600F03A
:10301400A7F9012206492846FFF732FEFFF742FED0
:1030240002B070BD1F85EB51B4010020B0550008FB
:103034000C00002038B5044606210020FFF7A2FD4D
:10304400FFF71AFF074D2346074A1421284600F0CC
:1030540087F9012205492846FFF712FEFFF722FEF1
:1030640038BD00BFB4010020BC5500080C0000208E
:1030740070B582B004460D46FFF7FEFE062100201F
:10308400FFF780FD084E00952346084A1421304678
:1030940000F066F9012206493046FFF7F1FDFFF71B
:1030A40001FE02B070BD00BFB4010020C455000889
:1030B4000C00002038B5FFF74FFF01210020FFF777
:1030C40061FD0F4C0F4B93E803002060A180090CB5
:1030D400A1710D4D012229462046FFF7D1FD112192
:1030E4003C20FFF74FFD094B93E80300206021715A
:1030F400012229462046FFF7C3FDFFF7D3FD38BD63
:10310400B4010020D055000804000020D855000860
:1031140010B5FFF721FF01210020FFF733FD074C15
:10312400074A234607CA03C31A70012205492046E9
:10313400FFF7A6FDFFF7B6FD10BD00BFB4010020E8
:10314400E05500080400002008B5FFF705FF012141
:103154000020FFF717FD064B064A07CA83E807005D
:10316400012205491846FFF78BFDFFF79BFD08BDBB
:10317400B4010020EC5500080400002038B5FFF726
:10318400EBFE01210020FFF7FDFC0E4C0E4B93E8F3
:10319400070084E807000D4D012229462046FFF769
:1031A4006FFD11210020FFF7EDFC094B93E80700A8
:1031B40084E80700012229462046FFF761FDFFF756
:1031C40071FD38BDB4010020EC5500080400002056
:1031D400F855000810B50446FFF7BEFE601E03282C
:1031E4000FD8DFE800F00205080BFFF7E9FD10BD7A
:1031F400FFF762FDFBE7FFF78BFDF8E7FFF7B4FD90
:10320400F5E7FFF7DDFDF2E738B5FFF7A5FE01218D
:103214000020FFF7B7FC0E4C0E4B93E8030084E844
:1032240003000D4D012229462046FFF729FD1121F7
:103234004120FFF7A7FC094B93E803002060A1801D
:10324400012229462046FFF71BFDFFF72BFD38BD61
:10325400B401002004560008040000200C560008A5
:1032640008B501210020FFF78DFC074B074A92E8BF
:10327400030018609980012205491846FFF700FDF4
:10328400FFF710FD08BD00BFB4010020145600086C
:103294000C00002008B5034B02225A61FEF734F9F2
:1032A40008BD00BF000C014008B5FEF737F908BDA2
:1032B400FFF752FA0B480C490C4A002302E0D45899
:1032C400C4500433C4188C42F9D3094A094C00236E
:1032D40001E013600432A242FBD300F015F8FDF7BD
:1032E40009F87047000000208400002058560008A8
:1032F40084000020F0030020FEE70000014B186862
:10330400704700BF2000002070B500260C4D0D4C06
:10331400641BA410A64209D100F0B0FC00260A4D9B
:103324000A4C641BA410A64205D170BD55F8043B99
:1033340098470136EEE755F8043B98470136F2E723
:1033440050560008505600085056000854560008BD
:1033540003460244934200D1704703F8011BF9E786
:103364000CB430B5174B0C1E1D689DB008DA8B23C6
:103374004FF0FF302B601DB0BDE8304002B0704705
:103384004FF40273ADF814300CBF234604F1FF333D
:10339400049307934FF6FF7302900690ADF816302E
:1033A400284621AB209A02A9019300F069F8431C36
:1033B400BCBF8B232B60002CDDD00022029B1A7033
:1033C400D9E700BF200000202DE9F0478E6882462F
:1033D4009E420C4690461F4638D88A8912F4906F54
:1033E40032D0256809690133A5EB010965694B44AD
:1033F40005EB450505EBD5756D109D4238BF1D469F
:10340400530531D5294600F06FFB064650B90C230D
:103414004FF0FF30CAF80030A38943F04003A38182
:10342400BDE8F0874A46216900F0CEFAA38923F467
:10343400906343F08003A38126614E4426603E4698
:103444006561A5EB0905A560BE4200D93E4632463A
:103454004146206800F0C6FAA36800209B1BA360C5
:10346400236833442360DBE72A4600F0B1FB0646B9
:103474000028E1D15046216900F0CEFAC7E70000E8
:103484002DE9F04F98468B8907461B060D461446D6
:103494009DB00ED50B6963B9402100F025FB28606F
:1034A400286120B90C233B604FF0FF30D1E040236A
:1034B4006B610023099320238DF8293030234FF0CA
:1034C4000109CDF80C80DFF8A4818DF82A30234659
:1034D4009A4613F8012B0AB1252AF9D1BAEB040B49
:1034E4000BD05B46224629463846FFF76DFF013074
:1034F40000F0AA80099A5A4409929AF80030002BE5
:1035040000F0A28000234FF0FF32CDE905230AF139
:10351400010A049307938DF853301A9354460522F5
:1035240014F8011B514800F041FA049AD8B9D006A6
:1035340044BF20238DF85330110744BF2B238DF84B
:1035440053309AF800302A2B15D0544600204FF0FF
:103554000A0C079A214611F8013B303B092B4ED93E
:10356400B0B1079214E0A0EB080309FA03F3134384
:10357400A2460493D2E7039B191D1B680391002BF9
:10358400BBBF5B4242F0020207930793B8BF0492A9
:1035940023782E2B0CD163782A2B35D1039B02344C
:1035A4001A1D1B680392002BB8BF4FF0FF3305931D
:1035B400DFF8BCA003225046217800F0F7F940B1AF
:1035C4004023A0EB0A0003FA00F0049B01340343F8
:1035D400049314F8011B062226488DF8281000F0E5
:1035E400E5F9002838D0244B1BBB039B073323F099
:1035F400070308330393099B3344099367E70C4695
:1036040001200CFB0232A5E700234FF00A0C1946F7
:1036140001340593204610F8012B303A092A03D9C6
:10362400002BC5D00591C3E7044601230CFB0121FF
:10363400F0E703AB00932A463846104B04A9AFF3D6
:103644000080421C0646D6D1AB895B063FF52CAF01
:1036540009981DB0BDE8F08F03AB00932A463846A5
:10366400064B04A900F07CF8EBE700BF1A560008EB
:10367400205600082456000800000000CD3300083E
:103684002DE9F047164699468A680B690746934226
:10369400B8BF1346336091F843200C46DDF8208010
:1036A4000AB1013333602368990642BF3368023399
:1036B4003360256815F0060506D104F1190AE3689C
:1036C40032689B1AAB4228DC94F84320131E22680C
:1036D40018BF012392062DD44946384604F143020B
:1036E400C047013020D02368E56803F00603042BAB
:1036F40018BF002532684FF00006A36808BFAD1A52
:10370400226908BF25EAE5759342C4BF9B1AED18E8
:103714001A34B5421AD1002008E001235246494622
:103724003846C047013003D14FF0FF30BDE8F08781
:103734000135C4E73020E11881F843005A1C94F89D
:1037440045102244023382F84310C5E70123224680
:1037540049463846C0470130E6D00136D9E7000073
:103764002DE9FF470F7E9146782F80460C469A46F6
:103774000C9D01F1430207D8622F0AD8002F00F0F4
:10378400D980582F00F0A48004F1420584F84270D7
:103794003AE0A7F16303152BF6D801A151F823F001
:1037A400FD370008113800088D3700088D370008F0
:1037B4008D3700088D370008113800088D37000850
:1037C4008D3700088D3700088D3700081F39000831
:1037D40041380008013900088D3700088D3700088A
:1037E400413900088D370008413800088D3700083A
:1037F4008D370008093900082B681A1D1B682A60D8
:1038040004F1420584F842300123A4E020682968C9
:10381400060601F104030AD50E682B60002E03DAB4
:103824002D23764284F843300A235E4819E00E685B
:1038340010F0400F2B6018BF36B2EFE72B682068FA
:10384400191D2960010601D51E6802E04606FBD554
:103854001E886F2F0CBF08230A235248002184F8C6
:1038640043106568002DA8BF2168A560A4BF21F09E
:10387400040121600EB9002D4DD01546B6FBF3F1BD
:1038840003FB1167C75D05F8017D3746BB420E4651
:10389400F4D9082B0BD12368DE0708D523696168A6
:1038A4009942DEBF302305F8013C05F1FF35521B78
:1038B40022614B4621464046CDF800A003AAFFF7FB
:1038C400DFFE01304CD14FF0FF3004B0BDE8F0878B
:1038D400344881F845702968236851F8046B2960DD
:1038E4001D0614D5DF0744BF43F0200323601EB92F
:1038F400236823F0200323601023AFE7236843F0F9
:10390400200323607823284884F84530E3E75906E8
:1039140048BFB6B2E6E71546BBE72B682668181D14
:103924006169286035061B6801D5196002E07006DC
:10393400FBD51980002315462361BAE72B680021C3
:103944001A1D2A601D686268284600F02FF808B125
:10395400401B606063682361002384F84330A8E758
:103964002A46494640462369D0470130ABD02368F4
:103974009B0713D4E068039B9842B8BF1846A4E79A
:103984000123324649464046D04701309BD0013599
:10399400E36803995B1AAB42F2DCEBE7002504F120
:1039A4001906F5E72B5600083C560008034610B5E7
:1039B400C9B202449342184601D1002003E00478BE
:1039C40001338C42F6D110BD0A44914200F1FF3319
:1039D40000D1704710B511F8014B914203F8014F23
:1039E400F9D110BD884210B501EB020402D984421A
:1039F400234607D8431EA14208D011F8012B03F82F
:103A0400012FF8E7014602448A4200D110BD13F8A1
:103A1400014D02F8014DF7E738B50546002940D0BD
:103A240051F8043C0C1F002BB8BFE41800F010F947
:103A34001C4A136833B9636014602846BDE83840F3
:103A440000F00CB9A34208D9206821188B4201BFA9
:103A540019685B6809182160EDE71A465B680BB1C9
:103A6400A342FAD911685018A0420BD1206801442E
:103A7400501883421160E0D118685B6801441160FA
:103A84005360DAE702D90C232B60D6E720682118AB
:103A94008B4201BF19685B68091821606360546038
:103AA400CBE738BDE003002070B50E4E0C463168FC
:103AB400054611B900F0BCF830602146284600F0F4
:103AC400B7F8431C0AD0C41C24F00304A04207D056
:103AD400211A284600F0ACF8013001D14FF0FF3430
:103AE400204670BDE40300202DE9F041CD1C25F0F3
:103AF400030508350C2D38BF0C25002D074601DBC6
:103B0400A94205D90C2300263B603046BDE8F0816C
:103B14002E4E00F09DF833681C4634BB29463846C7
:103B2400FFF7C2FF431C04464DD134682646002EDD
:103B340040D123683146384604EB030800F078F896
:103B440080453AD1216803356D1A25F003050835FF
:103B54000C2D38BF0C2538462946FFF7A5FF013048
:103B64002BD023682B4423600EE02268521B1ED402
:103B74000B2A16D96119A342256018BF59606368DE
:103B840008BF316062514B60384604F10B0600F007
:103B940065F826F00706231DF21AB6D09B1BA35026
:103BA400B3E76268A3420CBF32605A60ECE7234675
:103BB4006468B2E734467668B9E70C2338463B605C
:103BC40000F04CF8A1E72560DEE700BFE003002029
:103BD4002DE9F041804614460E4621B91146BDE850
:103BE400F041FFF781BF2AB9FFF716FF25462846A3
:103BF400BDE8F08100F038F88442074602D8B4EBFF
:103C0400500F12D821464046FFF76EFF05460028A4
:103C1400EDD0BC422246314628BF3A46FFF7D4FED7
:103C240031464046FFF7F8FEE1E73546DFE700009E
:103C340038B50023054D044608462B60FEF78EFD7B
:103C4400431C02D12B6803B1236038BDE803002074
:103C5400014800F011B800BFEC030020014800F057
:103C64000CB800BFEC03002051F8043C181F002BD3
:103C7400BCBF0B58C018704770477047F8B500BFF9
:103C8400F8BC08BC9E467047F8B500BFF8BC08BC39
:043C94009E46704791
:103C980000000000000000000102030406070809F4
:103CA8000000000001020304000000000000000002
:103CB80000000000000000000000000000000000FC
:103CC800000000000000000000000000000C000CD4
:103CD800000C000C000C000C000C000C000C000C7C
:103CE800000C0000000C000C000000000000001B8D
:103CF800001B001B001B001B000000000000000050
:103D080000000000000000000000000000000000AB
:103D18008019801980198019C07FC07F80190033ED
:103D2800C07FC07F00330033003300330000000041
:103D38000000001E003F807580650074003C001E76
:103D480000078005806580658075003F001E0004BF
:103D580000040000007000D840D8C0D880D9007393
:103D68000006000C801BC036C066C046C006800333
:103D7800000000000000001E003F00330033003345
:103D8800001E000CC03CC066806380618063C03E3A
:103D9800801C000000000000000C000C000C000C4F
:103DA800000C0000000000000000000000000000FF
:103DB8000000000000000000800000010003000671
:103DC80000060004000C000C000C000C000C000C99
:103DD800000400060006000300010020001000187F
:103DE800000C000C00040006000600060006000691
:103DF80000060004000C000C0018001080034004AA
:103E0800400440048003000000000000000000009F
:103E1800000000000000000000000000000000009A
:103E280000000000000C000C000C000CC0FFC0FFDC
:103E3800000C000C000C000C00000000000000004A
:103E4800000000000000000000000000000000006A
:103E58000000000000000000000C000C000400043A
:103E68000008000000000000000000000000000042
:103E780000000000001E001E0000000000000000FE
:103E8800000000000000000000000000000000002A
:103E98000000000000000000000000000000000C0E
:103EA800000C0000000000000003000300030006EF
:103EB800000600060006000C000C000C000C0018A0
:103EC80000180018000000000000001E003F00332A
:103ED80080618061806180618061806180618061D2
:103EE8000033003F001E0000000000000006000E26
:103EF800001E003600260006000600060006000622
:103F08000006000600060006000000000000001E73
:103F1800003F807380618061800100030006000C0F
:103F2800001800300060807F807F000000000000E3
:103F3800001C003E006300630003000E000E000337
:103F48008001800180618073003F001E0000000036
:103F580000000006000E000E001E001E00160036AF
:103F680000360066807F807F00060006000600009D
:103F780000000000007F007F006000600060006EAD
:103F8800007F80638001800180618073003F001E94
:103F9800000000000000001E003F803380610060C8
:103FA800006E007F80738061806180618033003F94
:103FB800001E000000000000807F807F8001000359
:103FC800000300060006000C000C000C0008001896
:103FD80000180018000000000000001E003F806369
:103FE800806180610021001E003F806180618061E6
:103FF8008061003F001E000000000000001E003F1E
:1040080000738061806180618073803F801D8001C2
:1040180080610073003F001E0000000000000000E7
:10402800000000000000000C000C00000000000070
:10403800000000000000000C000C00000000000060
:104048000000000000000000000C000C0000000050
:10405800000000000000000C000C00040004000830
:10406800000000000000000080008003000E0038FF
:1040780000600038000E800380000000000000008F
:10408800000000000000000000000000807F807F2A
:1040980000000000807F807F00000000000000001A
:1040A8000000000000000000000000000040007058
:1040B800001C000780010007001C00700040000081
:1040C8000000000000000000001F803FC071C060B9
:1040D800C000C00180030007000E000C000C0000A7
:1040E800000C000C000000000000001E003F8031A2
:1040F80080718063806F806D806D806F80670060E5
:104108000032003E001C000000000000000E000EFF
:10411800001B001B001B001B80318031803F803F4B
:104128008031C060C060C060000000000000007CFA
:10413800007E0063006300630063007E007E00630E
:10414800806180618063007F007E000000000000C5
:10415800001E003F803180610060006000600060E8
:104168000060006080618031003F001E0000000098
:104178000000007C007F0063806380618061806153
:1041880080618061806100630063007E007C0000C4
:1041980000000000807F807F006000600060006099
:1041A800007F007F0060006000600060807F807F8B
:1041B800000000000000807F807F006000600060D9
:1041C8000060007F007F00600060006000600060A9
:1041D8000060000000000000001E003F8031806188
:1041E800006000600060806380638061806180316E
:1041F800803F001E00000000000080618061806137
:10420800806180618061807F807F80618061806162
:10421800806180618061000000000000003F003F75
:10422800000C000C000C000C000C000C000C000C26
:10423800000C000C003F003F00000000000080015F
:10424800800180018001800180018001800180015E
:10425800806180618073003F001E00000000000044
:10426800C0608061006300660066006C0078007CB6
:1042780000660066006380618061C0600000000025
:104288000000006000600060006000600060006086
:1042980000600060006000600060807F807F000038
:1042A80000000000C071C071C07BC07AC06AC06ADB
:1042B800C06EC064C060C060C060C060C060C060E4
:1042C8000000000000008071807180798079807919
:1042D800806D806D806D8065806780678067806392
:1042E8008063000000000000001E003F0033806172
:1042F800806180618061806180618061806100335C
:10430800003F001E000000000000007E007F806368
:104318008061806180618063007F007E0060006052
:10432800006000600060000000000000001E003F08
:104338000033806180618061806180618061806517
:1043480080670033803F401E000000000000007EB0
:10435800007F8063806180618063007F007E0066EB
:104368000063006380618061C0600000000000009D
:10437800000E001F8031803100300038001E000719
:104388008003806180618031003F001E00000000D2
:104398000000C0FFC0FF000C000C000C000C000C5B
:1043A800000C000C000C000C000C000C000C0000B1
:1043B80000000000806180618061806180618061AF
:1043C800806180618061806180618073003F001E30
:1043D800000000000000C060C060C0608031803113
:1043E8008031001B001B001B001B000E000E000E7E
:1043F8000004000000000000C0C0C0C0C0C0C0C0B1
:10440800C0C0C0CC804C804C805E8052805280738B
:1044180080618061000000000000C0C08060806191
:104428000033003B001E000C000C001E001F003B68
:1044380080718061C0C0000000000000C0C08061C1
:10444800806100330033001E001E000C000C000CBD
:10445800000C000C000C000C000000000000803F65
:10446800803F8001000300030006000C000C0018C8
:10447800001800300060807F807F0000000000008E
:104488000000000000000000000000000000000024
:104498000000000000000000000000000000000014
:1044A8000000000000000000000000000000000004
:1044B80000000000E003E003E003E003E003E003A2
:1044C800E003E003C003C003C001C001C001C00194
:1044D800C001000000000000E003E003E00300006A
:1044E80000000000000000003C1E3C1E3C1E3C1E5C
:1044F8003C1E3C1E3C1E00000000000000000000A6
:1045080000000000000000000000000000000000A3
:10451800000000000000000000000000CE01CE03F3
:10452800DE039E039C039C07FF3FFF7F3807380F7D
:10453800780F780F780EFFFFFFFFF01EF01CE01CCD
:10454800E03CE03DE0390000000000000000000011
:10455800FC03FE0FEE1FE01EE01EE01EE01EE01F43
:10456800E00FE007F003FC01FE01FE01FE01FE0181
:10457800FE01FE01FE3DFC3FF00FE001E0010000FE
:1045880000000000033E07F78FE78EE79EE3BCE3D9
:10459800B8E7F8E7F0F7E03FC001FF03FF07F307CC
:1045A800F30FF31EF33CF338F3787FF03FE000009D
:1045B8000000000000000000E007F80F780F781FE7
:1045C800781F781F780FF00FE00F801FC37FC3FBA1
:1045D800E7F3F7F1F7F0FFF07FF03EF87F7CFF3F5D
:1045E800EF1F00000000000000000000E003E003EF
:1045F800E003C003C003C001C000C0000000000009
:1046080000000000000000000000000000000000A2
:104618000000000000000000000000000000000092
:104628003F007C00F001E001C003C007800780075D
:10463800800F000F000F000F000F000F000F800FFA
:1046480080078007C007C003E001F0017C003F003D
:104658000F000000007E001FC007C003E001F0014A
:10466800F000F000F8007800780078007800780012
:104678007800F800F000F000F001E001C003C00786
:10468800001F007E00780000C001E003180C180C21
:10469800180C180CE003C001000000000000000026
:1046A8000000000000000000000000000000000002
:1046B80000000000000000000000000000000000F2
:1046C8000000000000000000C001C001C001C001DE
:1046D800C001C001C001FFFFFFFFC001C001C00150
:1046E800C001C001C001000000000000000000007F
:1046F80000000000000000000000000000000000B2
:1047080000000000000000000000000000000000A1
:104718000000E003E003E003E003E001E001E00162
:10472800C00180030000000000000000000000003D
:1047380000000000000000000000FE3FFE3F0000F7
:104748000000000000000000000000000000000061
:104758000000000000000000000000000000000051
:104768000000000000000000000000000000000041
:1047780000000000000000000000E003E003E00388
:10478800E003000000000000000000000F000F0020
:104798001E001E003C003C0078007800F000F0008D
:1047A800E001E001C003C00380078007000F000F8D
:1047B800001E001E003C003C0078007800F000005D
:1047C800F007F80F7C1F3E3E1E3C1F7C1F7C0F78B5
:1047D8000F780F780F780F780F780F781F7C1F7C71
:1047E8001E3C3E3E7C1FF80FF00700000000000052
:1047F80000000000F000F007F03FF03FF001F0018A
:10480800F001F001F001F001F001F001F001F00118
:10481800F001F001F001F001F001FF3FFF3F00005F
:104828000000000000000000E00FF83F7C3C3C0066
:104838003E003E003E003C003C007C00F800F001D9
:10484800E003C0078007000F001E003E003CFE3F4B
:10485800FE3F00000000000000000000F00FF81FFD
:104868007C1C3E003E003E003C003C00F800F00F7F
:10487800F80F7C003E001E001E001E001E003E00B9
:104888007C1CF81FE01F0000000000000000000072
:104898007800F800F800F801F803F807F807780F2F
:1048A800781E781E783C78787878FFFFFFFF7800CC
:1048B8007800780078007800780000000000000098
:1048C80000000000FC1FFC1FFC1F001E001E001E35
:1048D800001E001EE01FF81FFC007C003E003E008A
:1048E8001E003E003E003C007C1CF81FE01F00003C
:1048F8000000000000000000FC01FE078E0F001FF2
:10490800001E003E003C003CF83DFC3F3E7F1F7E01
:104918000F3C0F3C0F3C0F3C0F3E1F1E3E1FFC0F71
:10492800F00300000000000000000000FF3FFF3F10
:10493800FF3F0F001E001E003C0038007800F0000A
:10494800F000E001E001C003C0038007800F800F82
:10495800000F001F001F0000000000000000000002
:10496800F807FC0F3E1F1E1E1E3E1E3E1E1E3C1F4D
:10497800F80FF007F80FFC1E3E3E1F3C1F7C0F7C13
:104988000F7C1F3C3E3FFC1FF007000000000000AA
:1049980000000000F007F80F7C1E3E3C1E3C1F7C08
:1049A8001F7C1F7C1F7C1F3C3F3EFF1FEF071F0023
:1049B8001E001E003E003C00F838F03FE01F0000DB
:1049C80000000000000000000000000000000000DF
:1049D80000000000E003E003E003E0030000000043
:1049E80000000000000000000000E003E003E00316
:1049F800E0030000000000000000000000000000CC
:104A08000000000000000000E003E003E003E00312
:104A18000000000000000000000000000000E003AB
:104A2800E003E003E003E001E001E001C0038003EC
:104A380000000000000000000000000003000F005C
:104A48003F00FC00F003C00F003F00FE003FC00F16
:104A5800F003FC003F000F0003000000000000000E
:104A6800000000000000000000000000000000003E
:104A78000000000000000000FFFFFFFF0000000032
:104A88000000FFFFFFFF0000000000000000000022
:104A9800000000000000000000000000000000000E
:104AA8000000000000E000F8007E801FE007F80129
:104AB8007E001F007E00F801E007801F007E00F8DE
:104AC80000E000000000000000000000F01FFC3FB4
:104AD8003E381F381F381E001E003C007800F000CA
:104AE800E001C003C003C007C007000000000000C9
:104AF800C007C007C0070000000000000000000059
:104B0800F803FE0F1E1F0F3E7F3CFF78EF79C77337
:104B1800C7F38FF38FF38FF39FF39FF3FF73FF7B3D
:104B2800F779003C1C1FFC0FF80300000000000090
:104B380000000000000000000000E003E003F007B0
:104B4800F007F007780F780F7C0E3C1E3C1E3E3CA9
:104B5800FE3FFF3F1F780F780FF007F007F00000C7
:104B68000000000000000000000000000000F83F06
:104B7800FC3F3E3C1E3C1E3C1E3C3E3C7C3CF03F09
:104B8800F83F7E3C1F3C1F3C0F3C0F3C1F3CFE3F48
:104B9800F83F0000000000000000000000000000D6
:104BA8000000FF01FF07871F003E003C007C0078E3
:104BB8000078007800780078007C007C003E003F98
:104BC800831FFF07FF010000000000000000000035
:104BD800000000000000F07FFC7F7E781F781F78BF
:104BE8000F780F780F780F780F780F780F780F7885
:104BF8001F781E787E78F87FE07F000000000000B4
:104C080000000000000000000000FF3FFF3F003EE2
:104C1800003E003E003E003E003EFE3FFE3F003E9E
:104C2800003E003E003E003E003EFF3FFF3F0000CA
:104C38000000000000000000000000000000FF1F4E
:104C4800FF1F001E001E001E001E001E001EFF1F6C
:104C5800FF1F001E001E001E001E001E001E001E5C
:104C6800001E00000000000000000000000000001E
:104C78000000FE03FF0F871F003E007C007C0078C9
:104C880000F800F87FF87FF80F780F7C0F7C0F3E54
:104C98008F1FFF0FFE03000000000000000000004F
:104CA8000000000000001F7C1F7C1F7C1F7C1F7CF5
:104CB8001F7C1F7C1F7CFF7FFF7F1F7C1F7C1F7C4E
:104CC8001F7C1F7C1F7C1F7C1F7C000000000000D5
:104CD80000000000000000000000FF3FFF3FE0036D
:104CE800E003E003E003E003E003E003E003E003A4
:104CF800E003E003E003E003E003FF3FFF3F0000C1
:104D08000000000000000000000000000000FC1F80
:104D1800FC1F7C007C007C007C007C007C007C000C
:104D28007C007C007C007C0078007800F838F03F3C
:104D3800C03F00000000000000000000000000006C
:104D480000001F3C1E3C3C3C783CF03CE03DE03F12
:104D5800C03F803FC03FE03FF03DF03C783C7C3CAA
:104D68003E3C1F3C0F3C000000000000000000001B
:104D7800000000000000003E003E003E003E003EF5
:104D8800003E003E003E003E003E003E003E003E2B
:104D9800003E003E003EFF3FFF3F000000000000D5
:104DA800000000000000000000001FF81FFC1FFCAE
:104DB8003FFE3FFE3FFE7FFF77FF77FFF7F7E7F7FE
:104DC800E7F3E7F3C7F307F007F007F007F0000091
:104DD80000000000000000000000000000000F7C40
:104DE8000F7C0F7E0F7F0F7F8F7F8F7FCF7FEF7BB3
:104DF800EF79FF79FF78FF787F783F783F781F78E1
:104E08001F78000000000000000000000000000003
:104E18000000F007FC1F3E3E1F7C0F780F780FF84C
:104E28000FF80FF80FF80FF80FF80F780F781F7CAE
:104E38003E3EFC1FF00700000000000000000000DC
:104E4800000000000000FC3FFF3F1F3E0F3E0F3EEA
:104E58000F3E0F3E1F3E3F3EFC3FF03F003E003EF0
:104E6800003E003E003E003E003E00000000000004
:104E780000000000000000000000F007FC1F3E3E9C
:104E88001F7C0F780F780FF80FF80FF80FF80FF84E
:104E98000FF80F780F781F7C3E3EFC1FF8077C0048
:104EA8003F000F0003000000000000000000F03F7A
:104EB800FC3F7E3C3E3C1E3C1E3C3E3C3C3CFC3C9D
:104EC800F03FE03FF03DF83C7C3C3E3C1E3C1F3C44
:104ED8000F3C00000000000000000000000000007F
:104EE8000000FC07FE1F0E3E003C003C003C003E5C
:104EF800C01FF80FFE037F001F000F000F001F20C8
:104F08003E3CFC3FF01F00000000000000000000D5
:104F1800000000000000FFFFFFFFE003E003E003E4
:104F2800E003E003E003E003E003E003E003E00361
:104F3800E003E003E003E003E003000000000000FA
:104F4800000000000000000000000F7C0F7C0F7CB8
:104F58000F7C0F7C0F7C0F7C0F7C0F7C0F7C0F7CF1
:104F68000F7C0F7C1E3C1E3C3E3EFC1FF0070000E1
:104F7800000000000000000000000000000007F032
:104F880007F007F80F780F7C1E3C1E3C1E3E3C1EA7
:104F98003C1F781F780FF80FF007F007F007E003C1
:104FA800E003000000000000000000000000000016
:104FB800000003E003F003F007F0E7F3E7F3E7F39B
:104FC800E773F77BF77FFF7F7F7F7F7F7E7F7E3F63
:104FD8003E3E3E3E3E3E0000000000000000000055
:104FE80000000000000007F80F7C1E3E3E3E3C1FFC
:104FF800F80FF007E007E003E003F007F80F7C0F75
:105008007C1E3E3C1F780F780FF000000000000067
:105018000000000000000000000007F807780F7C7F
:105028001E3C1E3E3C1F780FF80FF007E003E0031C
:10503800E003E003E003E003E003E003E003000033
:105048000000000000000000000000000000FF7FDA
:10505800FF7F0F001F003E007C00F800F000E00119
:10506800E003C007800F000F001E003E007CFF7F9A
:10507800FF7F0000000000000000000000000000AA
:105088000000000000000000000000000000000018
:105098000010001000100010001000100000001098
:1050A8000000000000280028002800000000000080
:1050B800000000000000000000240024007C002400
:1050C8000048007C004800480000000000380054F8
:1050D800005000380014005400540038001000003C
:1050E8000020005400580030002800540014000824
:1050F80000000000001000280028001000340048BC
:1051080000480034000000000010001000100000EB
:10511800000000000000000000000000000800106F
:10512800002000200020002000200020001000089F
:105138000020001000080008000800080008000807
:1051480000100020001000380010002800000000A7
:105158000000000000000000000000000010001027
:10516800007C00100010000000000000000000009B
:1051780000000000000000000000001000100010F7
:1051880000000000000000000000003800000000DF
:105198000000000000000000000000000000000007
:1051A80000000010000000000008000800100010B7
:1051B800001000100020002000000000003800440B
:1051C800004400440044004400440038000000004B
:1051D80000100030005000100010001000100010E7
:1051E80000000000003800440044000400080010DB
:1051F8000020007C00000000003800440004001873
:1052080000040004004400380000000000080018F2
:10521800002800280048007C000800080000000062
:10522800007C00400040007800040004004400387E
:1052380000000000003800440040007800440044AA
:105248000044003800000000007C00040008001042
:10525800001000200020002000000000003800445A
:1052680000440038004400440044003800000000B6
:105278000038004400440044003C00040044003866
:105288000000000000000000001000000000000006
:1052980000000010000000000000000000000010E6
:1052A80000000000000000100010001000000000C6
:1052B800000C003000400030000C0000000000002E
:1052C800000000000000007C0000007C00000000DE
:1052D8000000000000000000006000180004001832
:1052E80000600000000000000038004400040008CE
:1052F80000100010000000100000000000380044FA
:10530800004C0054005C00400040003800000000E1
:1053180000100028002800280028007C00440044D1
:105328000000000000780044004400780044004475
:1053380000440078000000000038004400400040AD
:1053480000400040004400380000000000700048A1
:10535800004400440044004400480070000000007D
:10536800007C00400040007C004000400040007C81
:1053780000000000007C0040004000780040004031
:105388000040004000000000003800440040004099
:10539800005C004400440038000000000044004461
:1053A8000044007C00440044004400440000000025
:1053B8000038001000100010001000100010003815
:1053C80000000000000400040004000400040004BD
:1053D800004400380000000000440048005000600D
:1053E8000050004800480044000000000040004011
:1053F80000400040004000400040007C00000000E9
:105408000044006C006C0054004400440044004414
:105418000000000000440064006400540054004C84
:10542800004C0044000000000038004400440044E0
:1054380000440044004400380000000000780044A4
:105448000044004400780040004000400000000094
:10545800003800440044004400440044005400382C
:10546800000400000078004400440044007800482C
:1054780000480044000000000038004400400030AC
:10548800000800040044003800000000007C001000
:1054980000100010001000100010001000000000A4
:1054A80000440044004400440044004400440038E0
:1054B80000000000004400440044002800280028A0
:1054C8000010001000000000004400440054005484
:1054D8000054006C00280028000000000044002848
:1054E80000280010001000280028004400000000D8
:1054F800004400440028002800100010001000108C
:1055080000000000007C00040008001000100020CB
:105518000040007C0000000000180010001000107F
:105528000010001000100010001000182050524504
:1055380053455431000000003E5052455345543203
:10554800000000003E50524553455433000000000F
:105558002050524553455434000000002050524515
:1055680053455433000000003E50524553455434CF
:10557800000000003E5052455345543100000000E1
:1055880020505245534554320000000050524553B4
:1055980045542575000000002575433A25303364CD
:1055A8002F2530336400000052543A25752E2530DB
:1055B800327500002533752052504D002575433A49
:1055C8002530336C6400000053454C4543540000BB
:1055D8004D4F444500000000534554204E554C4C57
:1055E800000000004D414E55414C204D4F444500B0
:1055F8003C2D534554204449522D3E0052454C45BC
:1056080041534500504544414C0000005354415219
:105618005400232D302B2000686C4C0065666745CC
:105628004647003031323334353637383941424312
:1056380044454600303132333435363738396162C3
:085648006364656600000000C8
:045650000902000843
:04565400E501000864
:105658000024F4000B110000B03C0008101A0000F0
:1056680088440008070A0000845000080100000070
:1056780024000020000000000000000000000000DE
:105688000000000000000000000000000000000012
:105698000000000000000000000000000000000002
:1056A80000000000000000000000000000000000F2
:1056B80000000000000000000000000000000000E2
:1056C80000000000000000000000000000000000D2
:0456D80000000000CE
:04000005080032B508
:00000001FF
